{
  "_format": "hh-sol-artifact-1",
  "contractName": "StandsolutionsERC721",
  "sourceName": "contracts/StandsolutionsERC721.sol",
  "abi": [
    {
      "inputs": [
        {
          "internalType": "string",
          "name": "name",
          "type": "string"
        },
        {
          "internalType": "string",
          "name": "symbol",
          "type": "string"
        },
        {
          "internalType": "bool",
          "name": "limit",
          "type": "bool"
        }
      ],
      "stateMutability": "nonpayable",
      "type": "constructor"
    },
    {
      "anonymous": false,
      "inputs": [
        {
          "indexed": true,
          "internalType": "address",
          "name": "owner",
          "type": "address"
        },
        {
          "indexed": true,
          "internalType": "address",
          "name": "approved",
          "type": "address"
        },
        {
          "indexed": true,
          "internalType": "uint256",
          "name": "tokenId",
          "type": "uint256"
        }
      ],
      "name": "Approval",
      "type": "event"
    },
    {
      "anonymous": false,
      "inputs": [
        {
          "indexed": true,
          "internalType": "address",
          "name": "owner",
          "type": "address"
        },
        {
          "indexed": true,
          "internalType": "address",
          "name": "operator",
          "type": "address"
        },
        {
          "indexed": false,
          "internalType": "bool",
          "name": "approved",
          "type": "bool"
        }
      ],
      "name": "ApprovalForAll",
      "type": "event"
    },
    {
      "anonymous": false,
      "inputs": [
        {
          "indexed": true,
          "internalType": "address",
          "name": "previousOwner",
          "type": "address"
        },
        {
          "indexed": true,
          "internalType": "address",
          "name": "newOwner",
          "type": "address"
        }
      ],
      "name": "OwnershipTransferred",
      "type": "event"
    },
    {
      "anonymous": false,
      "inputs": [
        {
          "indexed": false,
          "internalType": "address",
          "name": "account",
          "type": "address"
        }
      ],
      "name": "Paused",
      "type": "event"
    },
    {
      "anonymous": false,
      "inputs": [
        {
          "indexed": true,
          "internalType": "address",
          "name": "from",
          "type": "address"
        },
        {
          "indexed": true,
          "internalType": "address",
          "name": "to",
          "type": "address"
        },
        {
          "indexed": true,
          "internalType": "uint256",
          "name": "tokenId",
          "type": "uint256"
        }
      ],
      "name": "Transfer",
      "type": "event"
    },
    {
      "anonymous": false,
      "inputs": [
        {
          "indexed": false,
          "internalType": "address",
          "name": "account",
          "type": "address"
        }
      ],
      "name": "Unpaused",
      "type": "event"
    },
    {
      "inputs": [
        {
          "internalType": "address",
          "name": "to",
          "type": "address"
        },
        {
          "internalType": "uint256",
          "name": "tokenId",
          "type": "uint256"
        }
      ],
      "name": "approve",
      "outputs": [],
      "stateMutability": "nonpayable",
      "type": "function"
    },
    {
      "inputs": [
        {
          "internalType": "address",
          "name": "owner",
          "type": "address"
        }
      ],
      "name": "balanceOf",
      "outputs": [
        {
          "internalType": "uint256",
          "name": "",
          "type": "uint256"
        }
      ],
      "stateMutability": "view",
      "type": "function"
    },
    {
      "inputs": [],
      "name": "baseURI",
      "outputs": [
        {
          "internalType": "string",
          "name": "",
          "type": "string"
        }
      ],
      "stateMutability": "view",
      "type": "function"
    },
    {
      "inputs": [
        {
          "internalType": "uint256[]",
          "name": "tokenIds",
          "type": "uint256[]"
        },
        {
          "internalType": "uint256",
          "name": "deadline",
          "type": "uint256"
        },
        {
          "internalType": "bytes",
          "name": "signature",
          "type": "bytes"
        }
      ],
      "name": "batchMint",
      "outputs": [],
      "stateMutability": "nonpayable",
      "type": "function"
    },
    {
      "inputs": [
        {
          "internalType": "uint256",
          "name": "tokenId",
          "type": "uint256"
        }
      ],
      "name": "burn",
      "outputs": [],
      "stateMutability": "nonpayable",
      "type": "function"
    },
    {
      "inputs": [
        {
          "internalType": "uint256",
          "name": "tokenId",
          "type": "uint256"
        }
      ],
      "name": "getApproved",
      "outputs": [
        {
          "internalType": "address",
          "name": "",
          "type": "address"
        }
      ],
      "stateMutability": "view",
      "type": "function"
    },
    {
      "inputs": [
        {
          "internalType": "address",
          "name": "owner",
          "type": "address"
        },
        {
          "internalType": "address",
          "name": "operator",
          "type": "address"
        }
      ],
      "name": "isApprovedForAll",
      "outputs": [
        {
          "internalType": "bool",
          "name": "",
          "type": "bool"
        }
      ],
      "stateMutability": "view",
      "type": "function"
    },
    {
      "inputs": [
        {
          "internalType": "address",
          "name": "to",
          "type": "address"
        },
        {
          "internalType": "uint256",
          "name": "tokenId",
          "type": "uint256"
        }
      ],
      "name": "mint",
      "outputs": [],
      "stateMutability": "nonpayable",
      "type": "function"
    },
    {
      "inputs": [],
      "name": "name",
      "outputs": [
        {
          "internalType": "string",
          "name": "",
          "type": "string"
        }
      ],
      "stateMutability": "view",
      "type": "function"
    },
    {
      "inputs": [],
      "name": "owner",
      "outputs": [
        {
          "internalType": "address",
          "name": "",
          "type": "address"
        }
      ],
      "stateMutability": "view",
      "type": "function"
    },
    {
      "inputs": [
        {
          "internalType": "uint256",
          "name": "tokenId",
          "type": "uint256"
        }
      ],
      "name": "ownerOf",
      "outputs": [
        {
          "internalType": "address",
          "name": "",
          "type": "address"
        }
      ],
      "stateMutability": "view",
      "type": "function"
    },
    {
      "inputs": [],
      "name": "pause",
      "outputs": [],
      "stateMutability": "nonpayable",
      "type": "function"
    },
    {
      "inputs": [],
      "name": "paused",
      "outputs": [
        {
          "internalType": "bool",
          "name": "",
          "type": "bool"
        }
      ],
      "stateMutability": "view",
      "type": "function"
    },
    {
      "inputs": [],
      "name": "renounceOwnership",
      "outputs": [],
      "stateMutability": "nonpayable",
      "type": "function"
    },
    {
      "inputs": [
        {
          "internalType": "address",
          "name": "from",
          "type": "address"
        },
        {
          "internalType": "address",
          "name": "to",
          "type": "address"
        },
        {
          "internalType": "uint256",
          "name": "tokenId",
          "type": "uint256"
        }
      ],
      "name": "safeTransferFrom",
      "outputs": [],
      "stateMutability": "nonpayable",
      "type": "function"
    },
    {
      "inputs": [
        {
          "internalType": "address",
          "name": "from",
          "type": "address"
        },
        {
          "internalType": "address",
          "name": "to",
          "type": "address"
        },
        {
          "internalType": "uint256",
          "name": "tokenId",
          "type": "uint256"
        },
        {
          "internalType": "bytes",
          "name": "data",
          "type": "bytes"
        }
      ],
      "name": "safeTransferFrom",
      "outputs": [],
      "stateMutability": "nonpayable",
      "type": "function"
    },
    {
      "inputs": [
        {
          "internalType": "address",
          "name": "operator",
          "type": "address"
        },
        {
          "internalType": "bool",
          "name": "approved",
          "type": "bool"
        }
      ],
      "name": "setApprovalForAll",
      "outputs": [],
      "stateMutability": "nonpayable",
      "type": "function"
    },
    {
      "inputs": [
        {
          "internalType": "string",
          "name": "baseURI_",
          "type": "string"
        }
      ],
      "name": "setBaseURI",
      "outputs": [],
      "stateMutability": "nonpayable",
      "type": "function"
    },
    {
      "inputs": [
        {
          "internalType": "address",
          "name": "account",
          "type": "address"
        }
      ],
      "name": "setSigner",
      "outputs": [],
      "stateMutability": "nonpayable",
      "type": "function"
    },
    {
      "inputs": [],
      "name": "setTransferable",
      "outputs": [],
      "stateMutability": "nonpayable",
      "type": "function"
    },
    {
      "inputs": [],
      "name": "signer",
      "outputs": [
        {
          "internalType": "address",
          "name": "",
          "type": "address"
        }
      ],
      "stateMutability": "view",
      "type": "function"
    },
    {
      "inputs": [
        {
          "internalType": "uint256",
          "name": "tokenId",
          "type": "uint256"
        },
        {
          "internalType": "uint256",
          "name": "deadline",
          "type": "uint256"
        },
        {
          "internalType": "bytes",
          "name": "signature",
          "type": "bytes"
        }
      ],
      "name": "singleMint",
      "outputs": [],
      "stateMutability": "nonpayable",
      "type": "function"
    },
    {
      "inputs": [
        {
          "internalType": "bytes4",
          "name": "interfaceId",
          "type": "bytes4"
        }
      ],
      "name": "supportsInterface",
      "outputs": [
        {
          "internalType": "bool",
          "name": "",
          "type": "bool"
        }
      ],
      "stateMutability": "view",
      "type": "function"
    },
    {
      "inputs": [],
      "name": "symbol",
      "outputs": [
        {
          "internalType": "string",
          "name": "",
          "type": "string"
        }
      ],
      "stateMutability": "view",
      "type": "function"
    },
    {
      "inputs": [
        {
          "internalType": "uint256",
          "name": "index",
          "type": "uint256"
        }
      ],
      "name": "tokenByIndex",
      "outputs": [
        {
          "internalType": "uint256",
          "name": "",
          "type": "uint256"
        }
      ],
      "stateMutability": "view",
      "type": "function"
    },
    {
      "inputs": [
        {
          "internalType": "address",
          "name": "owner",
          "type": "address"
        },
        {
          "internalType": "uint256",
          "name": "index",
          "type": "uint256"
        }
      ],
      "name": "tokenOfOwnerByIndex",
      "outputs": [
        {
          "internalType": "uint256",
          "name": "",
          "type": "uint256"
        }
      ],
      "stateMutability": "view",
      "type": "function"
    },
    {
      "inputs": [
        {
          "internalType": "uint256",
          "name": "tokenId",
          "type": "uint256"
        }
      ],
      "name": "tokenURI",
      "outputs": [
        {
          "internalType": "string",
          "name": "",
          "type": "string"
        }
      ],
      "stateMutability": "view",
      "type": "function"
    },
    {
      "inputs": [],
      "name": "totalSupply",
      "outputs": [
        {
          "internalType": "uint256",
          "name": "",
          "type": "uint256"
        }
      ],
      "stateMutability": "view",
      "type": "function"
    },
    {
      "inputs": [
        {
          "internalType": "address",
          "name": "from",
          "type": "address"
        },
        {
          "internalType": "address",
          "name": "to",
          "type": "address"
        },
        {
          "internalType": "uint256",
          "name": "tokenId",
          "type": "uint256"
        }
      ],
      "name": "transferFrom",
      "outputs": [],
      "stateMutability": "nonpayable",
      "type": "function"
    },
    {
      "inputs": [
        {
          "internalType": "address",
          "name": "newOwner",
          "type": "address"
        }
      ],
      "name": "transferOwnership",
      "outputs": [],
      "stateMutability": "nonpayable",
      "type": "function"
    },
    {
      "inputs": [],
      "name": "transferable",
      "outputs": [
        {
          "internalType": "bool",
          "name": "",
          "type": "bool"
        }
      ],
      "stateMutability": "view",
      "type": "function"
    },
    {
      "inputs": [],
      "name": "unpause",
      "outputs": [],
      "stateMutability": "nonpayable",
      "type": "function"
    }
  ],
  "bytecode": "0x60806040523480156200001157600080fd5b506040516200299f3803806200299f833981016040819052620000349162000279565b8251839083906200004d90600090602085019062000106565b5080516200006390600190602084019062000106565b505050620000806200007a620000b060201b60201c565b620000b4565b600a805460ff60a01b19908116909155600c8054921515600160a01b0292909116919091179055506200033a9050565b3390565b600a80546001600160a01b038381166001600160a01b0319831681179093556040519116919082907f8be0079c531659141344cd1fd0a4f28419497f9722a3daafe3b4186f6b6457e090600090a35050565b8280546200011490620002fd565b90600052602060002090601f01602090048101928262000138576000855562000183565b82601f106200015357805160ff191683800117855562000183565b8280016001018555821562000183579182015b828111156200018357825182559160200191906001019062000166565b506200019192915062000195565b5090565b5b8082111562000191576000815560010162000196565b634e487b7160e01b600052604160045260246000fd5b600082601f830112620001d457600080fd5b81516001600160401b0380821115620001f157620001f1620001ac565b604051601f8301601f19908116603f011681019082821181831017156200021c576200021c620001ac565b816040528381526020925086838588010111156200023957600080fd5b600091505b838210156200025d57858201830151818301840152908201906200023e565b838211156200026f5760008385830101525b9695505050505050565b6000806000606084860312156200028f57600080fd5b83516001600160401b0380821115620002a757600080fd5b620002b587838801620001c2565b94506020860151915080821115620002cc57600080fd5b50620002db86828701620001c2565b92505060408401518015158114620002f257600080fd5b809150509250925092565b600181811c908216806200031257607f821691505b602082108114156200033457634e487b7160e01b600052602260045260246000fd5b50919050565b612655806200034a6000396000f3fe608060405234801561001057600080fd5b50600436106101f05760003560e01c80635c975abb1161010f57806392ff0d31116100a2578063c87b56dd11610071578063c87b56dd146103f5578063e985e9c514610408578063ee266d1f14610444578063f2fde38b1461045757600080fd5b806392ff0d31146103b357806395d89b41146103c7578063a22cb465146103cf578063b88d4fde146103e257600080fd5b806370a08231116100de57806370a082311461037f578063715018a6146103925780638456cb591461039a5780638da5cb5b146103a257600080fd5b80635c975abb1461033f5780636352211e146103515780636c0360eb146103645780636c19e7831461036c57600080fd5b806337d8b9951161018757806342842e0e1161015657806342842e0e146102f357806342966c68146103065780634f6ccce71461031957806355f804b31461032c57600080fd5b806337d8b995146102bd5780633f4ba83a146102c557806340c10f19146102cd57806340e41a8a146102e057600080fd5b806318160ddd116101c357806318160ddd14610272578063238ac9331461028457806323b872dd146102975780632f745c59146102aa57600080fd5b806301ffc9a7146101f557806306fdde031461021d578063081812fc14610232578063095ea7b31461025d575b600080fd5b610208610203366004611e99565b61046a565b60405190151581526020015b60405180910390f35b610225610495565b6040516102149190611f15565b610245610240366004611f28565b610527565b6040516001600160a01b039091168152602001610214565b61027061026b366004611f5d565b61054e565b005b6008545b604051908152602001610214565b600c54610245906001600160a01b031681565b6102706102a5366004611f87565b610669565b6102766102b8366004611f5d565b61069a565b610270610730565b610270610759565b6102706102db366004611f5d565b61076b565b6102706102ee366004612082565b610781565b610270610301366004611f87565b6108eb565b610270610314366004611f28565b610906565b610276610327366004611f28565b610959565b61027061033a366004612153565b6109ec565b600a54600160a01b900460ff16610208565b61024561035f366004611f28565b610a07565b610225610a67565b61027061037a36600461219c565b610af5565b61027661038d36600461219c565b610b1f565b610270610ba5565b610270610bb7565b600a546001600160a01b0316610245565b600c5461020890600160a01b900460ff1681565b610225610bc7565b6102706103dd3660046121b7565b610bd6565b6102706103f03660046121f3565b610be1565b610225610403366004611f28565b610c19565b61020861041636600461225b565b6001600160a01b03918216600090815260056020908152604080832093909416825291909152205460ff1690565b61027061045236600461228e565b610c80565b61027061046536600461219c565b610d52565b60006001600160e01b0319821663780e9d6360e01b148061048f575061048f82610dc8565b92915050565b6060600080546104a4906122d4565b80601f01602080910402602001604051908101604052809291908181526020018280546104d0906122d4565b801561051d5780601f106104f25761010080835404028352916020019161051d565b820191906000526020600020905b81548152906001019060200180831161050057829003601f168201915b5050505050905090565b600061053282610e18565b506000908152600460205260409020546001600160a01b031690565b600061055982610a07565b9050806001600160a01b0316836001600160a01b031614156105cc5760405162461bcd60e51b815260206004820152602160248201527f4552433732313a20617070726f76616c20746f2063757272656e74206f776e656044820152603960f91b60648201526084015b60405180910390fd5b336001600160a01b03821614806105e857506105e88133610416565b61065a5760405162461bcd60e51b815260206004820152603e60248201527f4552433732313a20617070726f76652063616c6c6572206973206e6f7420746f60448201527f6b656e206f776e6572206e6f7220617070726f76656420666f7220616c6c000060648201526084016105c3565b6106648383610e77565b505050565b6106733382610ee5565b61068f5760405162461bcd60e51b81526004016105c39061230f565b610664838383610f64565b60006106a583610b1f565b82106107075760405162461bcd60e51b815260206004820152602b60248201527f455243373231456e756d657261626c653a206f776e657220696e646578206f7560448201526a74206f6620626f756e647360a81b60648201526084016105c3565b506001600160a01b03919091166000908152600660209081526040808320938352929052205490565b61073861110b565b600c805460ff60a01b198116600160a01b9182900460ff1615909102179055565b61076161110b565b610769611165565b565b61077361110b565b61077d82826111ba565b5050565b6107896111d4565b814211156107c35760405162461bcd60e51b8152602060048201526007602482015266195e1c1a5c995960ca1b60448201526064016105c3565b600061083d3385856040516020016107dd9392919061235d565b60408051601f1981840301815282825280516020918201207f19457468657265756d205369676e6564204d6573736167653a0a33320000000084830152603c8085019190915282518085039091018152605c909301909152815191012090565b600c549091506001600160a01b03166108568284611221565b6001600160a01b03161461089d5760405162461bcd60e51b815260206004820152600e60248201526d34b73b30b634b21039b4b3b732b960911b60448201526064016105c3565b60005b84518110156108e45760008582815181106108bd576108bd6123bc565b602002602001015190506108d133826111ba565b50806108dc816123e8565b9150506108a0565b5050505050565b61066483838360405180602001604052806000815250610be1565b61090e6111d4565b6109183382610ee5565b61094d5760405162461bcd60e51b8152602060048201526006602482015265199bdc989a5960d21b60448201526064016105c3565b61095681611245565b50565b600061096460085490565b82106109c75760405162461bcd60e51b815260206004820152602c60248201527f455243373231456e756d657261626c653a20676c6f62616c20696e646578206f60448201526b7574206f6620626f756e647360a01b60648201526084016105c3565b600882815481106109da576109da6123bc565b90600052602060002001549050919050565b6109f461110b565b805161077d90600b906020840190611dea565b6000818152600260205260408120546001600160a01b03168061048f5760405162461bcd60e51b8152602060048201526018602482015277115490cdcc8c4e881a5b9d985b1a59081d1bdad95b88125160421b60448201526064016105c3565b600b8054610a74906122d4565b80601f0160208091040260200160405190810160405280929190818152602001828054610aa0906122d4565b8015610aed5780601f10610ac257610100808354040283529160200191610aed565b820191906000526020600020905b815481529060010190602001808311610ad057829003601f168201915b505050505081565b610afd61110b565b600c80546001600160a01b0319166001600160a01b0392909216919091179055565b60006001600160a01b038216610b895760405162461bcd60e51b815260206004820152602960248201527f4552433732313a2061646472657373207a65726f206973206e6f7420612076616044820152683634b21037bbb732b960b91b60648201526084016105c3565b506001600160a01b031660009081526003602052604090205490565b610bad61110b565b61076960006112ec565b610bbf61110b565b61076961133e565b6060600180546104a4906122d4565b61077d338383611381565b610beb3383610ee5565b610c075760405162461bcd60e51b81526004016105c39061230f565b610c1384848484611450565b50505050565b6060610c2482610e18565b6000600b8054610c33906122d4565b905011610c4f576040518060200160405280600081525061048f565b600b610c5a83611483565b604051602001610c6b92919061241f565b60405160208183030381529060405292915050565b610c886111d4565b81421115610cc25760405162461bcd60e51b8152602060048201526007602482015266195e1c1a5c995960ca1b60448201526064016105c3565b6040805133602082015290810184905260608101839052600090610ce8906080016107dd565b600c549091506001600160a01b0316610d018284611221565b6001600160a01b031614610d485760405162461bcd60e51b815260206004820152600e60248201526d34b73b30b634b21039b4b3b732b960911b60448201526064016105c3565b610c1333856111ba565b610d5a61110b565b6001600160a01b038116610dbf5760405162461bcd60e51b815260206004820152602660248201527f4f776e61626c653a206e6577206f776e657220697320746865207a65726f206160448201526564647265737360d01b60648201526084016105c3565b610956816112ec565b60006001600160e01b031982166380ac58cd60e01b1480610df957506001600160e01b03198216635b5e139f60e01b145b8061048f57506301ffc9a760e01b6001600160e01b031983161461048f565b6000818152600260205260409020546001600160a01b03166109565760405162461bcd60e51b8152602060048201526018602482015277115490cdcc8c4e881a5b9d985b1a59081d1bdad95b88125160421b60448201526064016105c3565b600081815260046020526040902080546001600160a01b0319166001600160a01b0384169081179091558190610eac82610a07565b6001600160a01b03167f8c5be1e5ebec7d5bd14f71427d1e84f3dd0314c0f7b2291e5b200ac8c7c3b92560405160405180910390a45050565b600080610ef183610a07565b9050806001600160a01b0316846001600160a01b03161480610f3857506001600160a01b0380821660009081526005602090815260408083209388168352929052205460ff165b80610f5c5750836001600160a01b0316610f5184610527565b6001600160a01b0316145b949350505050565b826001600160a01b0316610f7782610a07565b6001600160a01b031614610fdb5760405162461bcd60e51b815260206004820152602560248201527f4552433732313a207472616e736665722066726f6d20696e636f72726563742060448201526437bbb732b960d91b60648201526084016105c3565b6001600160a01b03821661103d5760405162461bcd60e51b8152602060048201526024808201527f4552433732313a207472616e7366657220746f20746865207a65726f206164646044820152637265737360e01b60648201526084016105c3565b611048838383611581565b611053600082610e77565b6001600160a01b038316600090815260036020526040812080546001929061107c9084906124da565b90915550506001600160a01b03821660009081526003602052604081208054600192906110aa9084906124f1565b909155505060008181526002602052604080822080546001600160a01b0319166001600160a01b0386811691821790925591518493918716917fddf252ad1be2c89b69c2b068fc378daa952ba7f163c4a11628f55a4df523b3ef91a4505050565b600a546001600160a01b031633146107695760405162461bcd60e51b815260206004820181905260248201527f4f776e61626c653a2063616c6c6572206973206e6f7420746865206f776e657260448201526064016105c3565b61116d6115e5565b600a805460ff60a01b191690557f5db9ee0a495bf2e6ff9c91a7834c1ba4fdd244a5e8aa4e537bd38aeae4b073aa335b6040516001600160a01b03909116815260200160405180910390a1565b61077d828260405180602001604052806000815250611635565b600a54600160a01b900460ff16156107695760405162461bcd60e51b815260206004820152601060248201526f14185d5cd8589b194e881c185d5cd95960821b60448201526064016105c3565b60008060006112308585611668565b9150915061123d816116ae565b509392505050565b600061125082610a07565b905061125e81600084611581565b611269600083610e77565b6001600160a01b03811660009081526003602052604081208054600192906112929084906124da565b909155505060008281526002602052604080822080546001600160a01b0319169055518391906001600160a01b038416907fddf252ad1be2c89b69c2b068fc378daa952ba7f163c4a11628f55a4df523b3ef908390a45050565b600a80546001600160a01b038381166001600160a01b0319831681179093556040519116919082907f8be0079c531659141344cd1fd0a4f28419497f9722a3daafe3b4186f6b6457e090600090a35050565b6113466111d4565b600a805460ff60a01b1916600160a01b1790557f62e78cea01bee320cd4e420270b5ea74000d11b0c9f74754ebdbfc544b05a25861119d3390565b816001600160a01b0316836001600160a01b031614156113e35760405162461bcd60e51b815260206004820152601960248201527f4552433732313a20617070726f766520746f2063616c6c65720000000000000060448201526064016105c3565b6001600160a01b03838116600081815260056020908152604080832094871680845294825291829020805460ff191686151590811790915591519182527f17307eab39ab6107e8899845ad3d59bd9653f200f220920489ca2b5937696c31910160405180910390a3505050565b61145b848484610f64565b61146784848484611869565b610c135760405162461bcd60e51b81526004016105c390612509565b6060816114a75750506040805180820190915260018152600360fc1b602082015290565b8160005b81156114d157806114bb816123e8565b91506114ca9050600a83612571565b91506114ab565b60008167ffffffffffffffff8111156114ec576114ec611fc3565b6040519080825280601f01601f191660200182016040528015611516576020820181803683370190505b5090505b8415610f5c5761152b6001836124da565b9150611538600a86612585565b6115439060306124f1565b60f81b818381518110611558576115586123bc565b60200101906001600160f81b031916908160001a90535061157a600a86612571565b945061151a565b61158c838383611967565b600c54600160a01b900460ff166106645760405162461bcd60e51b815260206004820152601860248201527f4552433732313a206e6f6e207472616e7366657261626c65000000000000000060448201526064016105c3565b600a54600160a01b900460ff166107695760405162461bcd60e51b815260206004820152601460248201527314185d5cd8589b194e881b9bdd081c185d5cd95960621b60448201526064016105c3565b61163f8383611a1f565b61164c6000848484611869565b6106645760405162461bcd60e51b81526004016105c390612509565b60008082516041141561169f5760208301516040840151606085015160001a61169387828585611b6d565b945094505050506116a7565b506000905060025b9250929050565b60008160048111156116c2576116c2612599565b14156116cb5750565b60018160048111156116df576116df612599565b141561172d5760405162461bcd60e51b815260206004820152601860248201527f45434453413a20696e76616c6964207369676e6174757265000000000000000060448201526064016105c3565b600281600481111561174157611741612599565b141561178f5760405162461bcd60e51b815260206004820152601f60248201527f45434453413a20696e76616c6964207369676e6174757265206c656e6774680060448201526064016105c3565b60038160048111156117a3576117a3612599565b14156117fc5760405162461bcd60e51b815260206004820152602260248201527f45434453413a20696e76616c6964207369676e6174757265202773272076616c604482015261756560f01b60648201526084016105c3565b600481600481111561181057611810612599565b14156109565760405162461bcd60e51b815260206004820152602260248201527f45434453413a20696e76616c6964207369676e6174757265202776272076616c604482015261756560f01b60648201526084016105c3565b60006001600160a01b0384163b1561195c57604051630a85bd0160e11b81526001600160a01b0385169063150b7a02906118ad9033908990889088906004016125af565b6020604051808303816000875af19250505080156118e8575060408051601f3d908101601f191682019092526118e5918101906125ec565b60015b611942573d808015611916576040519150601f19603f3d011682016040523d82523d6000602084013e61191b565b606091505b50805161193a5760405162461bcd60e51b81526004016105c390612509565b805181602001fd5b6001600160e01b031916630a85bd0160e11b149050610f5c565b506001949350505050565b6001600160a01b0383166119c2576119bd81600880546000838152600960205260408120829055600182018355919091527ff3f7a9fe364faab93b216da50a3214154f22a0a2b415b23a84c8169e8b636ee30155565b6119e5565b816001600160a01b0316836001600160a01b0316146119e5576119e58382611c5a565b6001600160a01b0382166119fc5761066481611cf7565b826001600160a01b0316826001600160a01b031614610664576106648282611da6565b6001600160a01b038216611a755760405162461bcd60e51b815260206004820181905260248201527f4552433732313a206d696e7420746f20746865207a65726f206164647265737360448201526064016105c3565b6000818152600260205260409020546001600160a01b031615611ada5760405162461bcd60e51b815260206004820152601c60248201527f4552433732313a20746f6b656e20616c7265616479206d696e7465640000000060448201526064016105c3565b611ae660008383611581565b6001600160a01b0382166000908152600360205260408120805460019290611b0f9084906124f1565b909155505060008181526002602052604080822080546001600160a01b0319166001600160a01b03861690811790915590518392907fddf252ad1be2c89b69c2b068fc378daa952ba7f163c4a11628f55a4df523b3ef908290a45050565b6000807f7fffffffffffffffffffffffffffffff5d576e7357a4501ddfe92f46681b20a0831115611ba45750600090506003611c51565b8460ff16601b14158015611bbc57508460ff16601c14155b15611bcd5750600090506004611c51565b6040805160008082526020820180845289905260ff881692820192909252606081018690526080810185905260019060a0016020604051602081039080840390855afa158015611c21573d6000803e3d6000fd5b5050604051601f1901519150506001600160a01b038116611c4a57600060019250925050611c51565b9150600090505b94509492505050565b60006001611c6784610b1f565b611c7191906124da565b600083815260076020526040902054909150808214611cc4576001600160a01b03841660009081526006602090815260408083208584528252808320548484528184208190558352600790915290208190555b5060009182526007602090815260408084208490556001600160a01b039094168352600681528383209183525290812055565b600854600090611d09906001906124da565b60008381526009602052604081205460088054939450909284908110611d3157611d316123bc565b906000526020600020015490508060088381548110611d5257611d526123bc565b6000918252602080832090910192909255828152600990915260408082208490558582528120556008805480611d8a57611d8a612609565b6001900381819060005260206000200160009055905550505050565b6000611db183610b1f565b6001600160a01b039093166000908152600660209081526040808320868452825280832085905593825260079052919091209190915550565b828054611df6906122d4565b90600052602060002090601f016020900481019282611e185760008555611e5e565b82601f10611e3157805160ff1916838001178555611e5e565b82800160010185558215611e5e579182015b82811115611e5e578251825591602001919060010190611e43565b50611e6a929150611e6e565b5090565b5b80821115611e6a5760008155600101611e6f565b6001600160e01b03198116811461095657600080fd5b600060208284031215611eab57600080fd5b8135611eb681611e83565b9392505050565b60005b83811015611ed8578181015183820152602001611ec0565b83811115610c135750506000910152565b60008151808452611f01816020860160208601611ebd565b601f01601f19169290920160200192915050565b602081526000611eb66020830184611ee9565b600060208284031215611f3a57600080fd5b5035919050565b80356001600160a01b0381168114611f5857600080fd5b919050565b60008060408385031215611f7057600080fd5b611f7983611f41565b946020939093013593505050565b600080600060608486031215611f9c57600080fd5b611fa584611f41565b9250611fb360208501611f41565b9150604084013590509250925092565b634e487b7160e01b600052604160045260246000fd5b604051601f8201601f1916810167ffffffffffffffff8111828210171561200257612002611fc3565b604052919050565b600067ffffffffffffffff83111561202457612024611fc3565b612037601f8401601f1916602001611fd9565b905082815283838301111561204b57600080fd5b828260208301376000602084830101529392505050565b600082601f83011261207357600080fd5b611eb68383356020850161200a565b60008060006060848603121561209757600080fd5b833567ffffffffffffffff808211156120af57600080fd5b818601915086601f8301126120c357600080fd5b81356020828211156120d7576120d7611fc3565b8160051b6120e6828201611fd9565b928352848101820192828101908b85111561210057600080fd5b958301955b8487101561211e57863582529583019590830190612105565b98505050870135945050604086013591508082111561213c57600080fd5b5061214986828701612062565b9150509250925092565b60006020828403121561216557600080fd5b813567ffffffffffffffff81111561217c57600080fd5b8201601f8101841361218d57600080fd5b610f5c8482356020840161200a565b6000602082840312156121ae57600080fd5b611eb682611f41565b600080604083850312156121ca57600080fd5b6121d383611f41565b9150602083013580151581146121e857600080fd5b809150509250929050565b6000806000806080858703121561220957600080fd5b61221285611f41565b935061222060208601611f41565b925060408501359150606085013567ffffffffffffffff81111561224357600080fd5b61224f87828801612062565b91505092959194509250565b6000806040838503121561226e57600080fd5b61227783611f41565b915061228560208401611f41565b90509250929050565b6000806000606084860312156122a357600080fd5b8335925060208401359150604084013567ffffffffffffffff8111156122c857600080fd5b61214986828701612062565b600181811c908216806122e857607f821691505b6020821081141561230957634e487b7160e01b600052602260045260246000fd5b50919050565b6020808252602e908201527f4552433732313a2063616c6c6572206973206e6f7420746f6b656e206f776e6560408201526d1c881b9bdc88185c1c1c9bdd995960921b606082015260800190565b6001600160a01b038416815260606020808301829052845191830182905260009185820191906080850190845b818110156123a65784518352938301939183019160010161238a565b5050809350505050826040830152949350505050565b634e487b7160e01b600052603260045260246000fd5b634e487b7160e01b600052601160045260246000fd5b60006000198214156123fc576123fc6123d2565b5060010190565b60008151612415818560208601611ebd565b9290920192915050565b600080845481600182811c91508083168061243b57607f831692505b602080841082141561245b57634e487b7160e01b86526022600452602486fd5b81801561246f5760018114612480576124ad565b60ff198616895284890196506124ad565b60008b81526020902060005b868110156124a55781548b82015290850190830161248c565b505084890196505b5050505050506124d16124c08286612403565b64173539b7b760d91b815260050190565b95945050505050565b6000828210156124ec576124ec6123d2565b500390565b60008219821115612504576125046123d2565b500190565b60208082526032908201527f4552433732313a207472616e7366657220746f206e6f6e20455243373231526560408201527131b2b4bb32b91034b6b83632b6b2b73a32b960711b606082015260800190565b634e487b7160e01b600052601260045260246000fd5b6000826125805761258061255b565b500490565b6000826125945761259461255b565b500690565b634e487b7160e01b600052602160045260246000fd5b6001600160a01b03858116825284166020820152604081018390526080606082018190526000906125e290830184611ee9565b9695505050505050565b6000602082840312156125fe57600080fd5b8151611eb681611e83565b634e487b7160e01b600052603160045260246000fdfea2646970667358221220cefcc00b67f90e8b2e49fd2bb5e85cda4f30603b4f23fd4476321ecbc1297fc664736f6c634300080c0033",
  "linkReferences": {},
  "deployedLinkReferences": {}
}