{
  "_format": "hh-sol-artifact-1",
  "contractName": "Port3NFTFactory",
  "sourceName": "contracts/Port3NFTFactory.sol",
  "abi": [
    {
      "anonymous": false,
      "inputs": [
        {
          "indexed": true,
          "internalType": "address",
          "name": "sender",
          "type": "address"
        },
        {
          "indexed": false,
          "internalType": "address",
          "name": "nft",
          "type": "address"
        }
      ],
      "name": "Port3ERC1155Created",
      "type": "event"
    },
    {
      "anonymous": false,
      "inputs": [
        {
          "indexed": true,
          "internalType": "address",
          "name": "sender",
          "type": "address"
        },
        {
          "indexed": false,
          "internalType": "address",
          "name": "nft",
          "type": "address"
        }
      ],
      "name": "Port3ERC721Created",
      "type": "event"
    },
    {
      "inputs": [
        {
          "internalType": "address",
          "name": "signer",
          "type": "address"
        },
        {
          "internalType": "string",
          "name": "uri",
          "type": "string"
        }
      ],
      "name": "createPort3ERC1155",
      "outputs": [],
      "stateMutability": "nonpayable",
      "type": "function"
    },
    {
      "inputs": [
        {
          "internalType": "address",
          "name": "signer",
          "type": "address"
        },
        {
          "internalType": "string",
          "name": "name",
          "type": "string"
        },
        {
          "internalType": "string",
          "name": "symbol",
          "type": "string"
        },
        {
          "internalType": "string",
          "name": "baseURI",
          "type": "string"
        }
      ],
      "name": "createPort3ERC721",
      "outputs": [],
      "stateMutability": "nonpayable",
      "type": "function"
    }
  ],
  "bytecode": "0x608060405234801561001057600080fd5b50615687806100206000396000f3fe60806040523480156200001157600080fd5b50600436106200003a5760003560e01c806307d91ac6146200003f5780632967c2841462000058575b600080fd5b6200005662000050366004620005f9565b6200006f565b005b6200005662000069366004620006b0565b620002af565b600060405180602001620000839062000574565b601f1982820381018352601f909101166040819052620000ae90899089908990899060200162000732565b60408051601f1981840301815290829052620000ce92916020016200079b565b60405160208183030381529060405290506000334389898989604051602001620000fe96959493929190620007ce565b6040516020818303038152906040528051906020012090506000620001266000838562000460565b9050806001600160a01b03166355f804b386866040516020016200014c92919062000818565b6040516020818303038152906040526040518263ffffffff1660e01b815260040162000179919062000828565b600060405180830381600087803b1580156200019457600080fd5b505af1158015620001a9573d6000803e3d6000fd5b5050604051636c19e78360e01b81526001600160a01b038d8116600483015284169250636c19e7839150602401600060405180830381600087803b158015620001f157600080fd5b505af115801562000206573d6000803e3d6000fd5b505060405163f2fde38b60e01b81523360048201526001600160a01b038416925063f2fde38b9150602401600060405180830381600087803b1580156200024c57600080fd5b505af115801562000261573d6000803e3d6000fd5b50506040516001600160a01b03841681523392507f378637aae5c4bf6f708d485ba7d1dc870648c8d01ebe92542d6864ce78edf2bb915060200160405180910390a250505050505050505050565b600060405180602001620002c39062000582565b601f1982820381018352601f909101166040819052620002ea90859085906020016200085d565b60408051601f19818403018152908290526200030a92916020016200079b565b604051602081830303815290604052905060003343858560405160200162000336949392919062000873565b60405160208183030381529060405280519060200120905060006200035e6000838562000460565b604051636c19e78360e01b81526001600160a01b03888116600483015291925090821690636c19e78390602401600060405180830381600087803b158015620003a657600080fd5b505af1158015620003bb573d6000803e3d6000fd5b505060405163f2fde38b60e01b81523360048201526001600160a01b038416925063f2fde38b9150602401600060405180830381600087803b1580156200040157600080fd5b505af115801562000416573d6000803e3d6000fd5b50506040516001600160a01b03841681523392507ffb78fa7f7bda92a3e046badc77c0e4db5c5abdddd2df824c4a8c02609e649b35915060200160405180910390a2505050505050565b60008084471015620004b95760405162461bcd60e51b815260206004820152601d60248201527f437265617465323a20696e73756666696369656e742062616c616e636500000060448201526064015b60405180910390fd5b8251620005095760405162461bcd60e51b815260206004820181905260248201527f437265617465323a2062797465636f6465206c656e677468206973207a65726f6044820152606401620004b0565b8383516020850187f590506001600160a01b0381166200056c5760405162461bcd60e51b815260206004820152601960248201527f437265617465323a204661696c6564206f6e206465706c6f79000000000000006044820152606401620004b0565b949350505050565b61245e80620008a783390190565b61294d8062002d0583390190565b80356001600160a01b0381168114620005a857600080fd5b919050565b60008083601f840112620005c057600080fd5b50813567ffffffffffffffff811115620005d957600080fd5b602083019150836020828501011115620005f257600080fd5b9250929050565b60008060008060008060006080888a0312156200061557600080fd5b620006208862000590565b9650602088013567ffffffffffffffff808211156200063e57600080fd5b6200064c8b838c01620005ad565b909850965060408a01359150808211156200066657600080fd5b620006748b838c01620005ad565b909650945060608a01359150808211156200068e57600080fd5b506200069d8a828b01620005ad565b989b979a50959850939692959293505050565b600080600060408486031215620006c657600080fd5b620006d18462000590565b9250602084013567ffffffffffffffff811115620006ee57600080fd5b620006fc86828701620005ad565b9497909650939450505050565b81835281816020850137506000828201602090810191909152601f909101601f19169091010190565b6040815260006200074860408301868862000709565b82810360208401526200075d81858762000709565b979650505050505050565b60005b83811015620007855781810151838201526020016200076b565b8381111562000795576000848401525b50505050565b60008351620007af81846020880162000768565b835190830190620007c581836020880162000768565b01949350505050565b6bffffffffffffffffffffffff198760601b168152856014820152838560348301376000848201603481016000815284868237506000930160340192835250909695505050505050565b8183823760009101908152919050565b60208152600082518060208401526200084981604085016020870162000768565b601f01601f19169190910160400192915050565b6020815260006200056c60208301848662000709565b6bffffffffffffffffffffffff198560601b1681528360148201528183603483013760009101603401908152939250505056fe60806040523480156200001157600080fd5b506040516200245e3803806200245e833981016040819052620000349162000251565b8151829082906200004d906000906020850190620000de565b50805162000063906001906020840190620000de565b505050620000806200007a6200008860201b60201c565b6200008c565b5050620002f8565b3390565b600680546001600160a01b038381166001600160a01b0319831681179093556040519116919082907f8be0079c531659141344cd1fd0a4f28419497f9722a3daafe3b4186f6b6457e090600090a35050565b828054620000ec90620002bb565b90600052602060002090601f0160209004810192826200011057600085556200015b565b82601f106200012b57805160ff19168380011785556200015b565b828001600101855582156200015b579182015b828111156200015b5782518255916020019190600101906200013e565b50620001699291506200016d565b5090565b5b808211156200016957600081556001016200016e565b634e487b7160e01b600052604160045260246000fd5b600082601f830112620001ac57600080fd5b81516001600160401b0380821115620001c957620001c962000184565b604051601f8301601f19908116603f01168101908282118183101715620001f457620001f462000184565b816040528381526020925086838588010111156200021157600080fd5b600091505b8382101562000235578582018301518183018401529082019062000216565b83821115620002475760008385830101525b9695505050505050565b600080604083850312156200026557600080fd5b82516001600160401b03808211156200027d57600080fd5b6200028b868387016200019a565b93506020850151915080821115620002a257600080fd5b50620002b1858286016200019a565b9150509250929050565b600181811c90821680620002d057607f821691505b60208210811415620002f257634e487b7160e01b600052602260045260246000fd5b50919050565b61215680620003086000396000f3fe608060405234801561001057600080fd5b506004361061018e5760003560e01c806370a08231116100de578063a22cb46511610097578063d3fc986411610071578063d3fc986414610367578063e985e9c51461037a578063f0ba8440146103b6578063f2fde38b146103c957600080fd5b8063a22cb4651461032e578063b88d4fde14610341578063c87b56dd1461035457600080fd5b806370a08231146102c6578063715018a6146102e757806372e6cbe9146102ef5780637f0ebebe146103025780638da5cb5b1461031557806395d89b411461032657600080fd5b806342842e0e1161014b57806355f804b31161012557806355f804b3146102855780636352211e146102985780636c0360eb146102ab5780636c19e783146102b357600080fd5b806342842e0e1461023657806342966c6814610249578063510b51581461025c57600080fd5b806301ffc9a71461019357806306fdde03146101bb578063081812fc146101d0578063095ea7b3146101fb578063238ac9331461021057806323b872dd14610223575b600080fd5b6101a66101a13660046118a1565b6103dc565b60405190151581526020015b60405180910390f35b6101c361042e565b6040516101b29190611912565b6101e36101de366004611925565b6104c0565b6040516001600160a01b0390911681526020016101b2565b61020e61020936600461195a565b6104e7565b005b6008546101e3906001600160a01b031681565b61020e610231366004611984565b610602565b61020e610244366004611984565b610633565b61020e610257366004611925565b61064e565b6101e361026a366004611925565b6009602052600090815260409020546001600160a01b031681565b61020e610293366004611a77565b6106b4565b6101e36102a6366004611925565b6106d3565b6101c3610733565b61020e6102c1366004611aac565b6107c1565b6102d96102d4366004611aac565b6107eb565b6040519081526020016101b2565b61020e610871565b61020e6102fd366004611ac7565b610885565b61020e610310366004611bf2565b6109e3565b6006546001600160a01b03166101e3565b6101c3610b7c565b61020e61033c366004611ca3565b610b8b565b61020e61034f366004611cdf565b610b96565b6101c3610362366004611925565b610bce565b61020e610375366004611d3b565b610c3f565b6101a6610388366004611d92565b6001600160a01b03918216600090815260056020908152604080832093909416825291909152205460ff1690565b6101c36103c4366004611925565b610c90565b61020e6103d7366004611aac565b610ca9565b60006001600160e01b031982166380ac58cd60e01b148061040d57506001600160e01b03198216635b5e139f60e01b145b8061042857506301ffc9a760e01b6001600160e01b03198316145b92915050565b60606000805461043d90611dc5565b80601f016020809104026020016040519081016040528092919081815260200182805461046990611dc5565b80156104b65780601f1061048b576101008083540402835291602001916104b6565b820191906000526020600020905b81548152906001019060200180831161049957829003601f168201915b5050505050905090565b60006104cb82610d22565b506000908152600460205260409020546001600160a01b031690565b60006104f2826106d3565b9050806001600160a01b0316836001600160a01b031614156105655760405162461bcd60e51b815260206004820152602160248201527f4552433732313a20617070726f76616c20746f2063757272656e74206f776e656044820152603960f91b60648201526084015b60405180910390fd5b336001600160a01b038216148061058157506105818133610388565b6105f35760405162461bcd60e51b815260206004820152603e60248201527f4552433732313a20617070726f76652063616c6c6572206973206e6f7420746f60448201527f6b656e206f776e6572206e6f7220617070726f76656420666f7220616c6c0000606482015260840161055c565b6105fd8383610d81565b505050565b61060c3382610def565b6106285760405162461bcd60e51b815260040161055c90611e00565b6105fd838383610e6e565b6105fd83838360405180602001604052806000815250610b96565b6106583382610def565b61068d5760405162461bcd60e51b8152602060048201526006602482015265199bdc989a5960d21b604482015260640161055c565b6106968161100a565b600090815260096020526040902080546001600160a01b0319169055565b6106bc6110a5565b80516106cf9060079060208401906117f2565b5050565b6000818152600260205260408120546001600160a01b0316806104285760405162461bcd60e51b8152602060048201526018602482015277115490cdcc8c4e881a5b9d985b1a59081d1bdad95b88125160421b604482015260640161055c565b6007805461074090611dc5565b80601f016020809104026020016040519081016040528092919081815260200182805461076c90611dc5565b80156107b95780601f1061078e576101008083540402835291602001916107b9565b820191906000526020600020905b81548152906001019060200180831161079c57829003601f168201915b505050505081565b6107c96110a5565b600880546001600160a01b0319166001600160a01b0392909216919091179055565b60006001600160a01b0382166108555760405162461bcd60e51b815260206004820152602960248201527f4552433732313a2061646472657373207a65726f206973206e6f7420612076616044820152683634b21037bbb732b960b91b606482015260840161055c565b506001600160a01b031660009081526003602052604090205490565b6108796110a5565b61088360006110ff565b565b814211156108bf5760405162461bcd60e51b8152602060048201526007602482015266195e1c1a5c995960ca1b604482015260640161055c565b600061093b338686866040516020016108db9493929190611e4e565b60408051601f1981840301815282825280516020918201207f19457468657265756d205369676e6564204d6573736167653a0a33320000000084830152603c8085019190915282518085039091018152605c909301909152815191012090565b6008549091506001600160a01b03166109548284611151565b6001600160a01b03161461099b5760405162461bcd60e51b815260206004820152600e60248201526d34b73b30b634b21039b4b3b732b960911b604482015260640161055c565b6109a53386611175565b600085815260096020908152604080832080546001600160a01b03191633179055600a825290912085516109db928701906117f2565b505050505050565b81421115610a1d5760405162461bcd60e51b8152602060048201526007602482015266195e1c1a5c995960ca1b604482015260640161055c565b8251845114610a575760405162461bcd60e51b8152602060048201526006602482015265199bdc989a5960d21b604482015260640161055c565b6000610a73338686866040516020016108db9493929190611e86565b6008549091506001600160a01b0316610a8c8284611151565b6001600160a01b031614610ad35760405162461bcd60e51b815260206004820152600e60248201526d34b73b30b634b21039b4b3b732b960911b604482015260640161055c565b60005b85518110156109db576000868281518110610af357610af3611f39565b60200260200101519050610b073382611175565b600081815260096020526040902080546001600160a01b031916331790558551869083908110610b3957610b39611f39565b6020026020010151600a60008381526020019081526020016000209080519060200190610b679291906117f2565b50508080610b7490611f65565b915050610ad6565b60606001805461043d90611dc5565b6106cf33838361118f565b610ba03383610def565b610bbc5760405162461bcd60e51b815260040161055c90611e00565b610bc88484848461125e565b50505050565b6060610bd982610d22565b600060078054610be890611dc5565b905011610c045760405180602001604052806000815250610428565b6007600a6000848152602001908152602001600020604051602001610c2a92919061201a565b60405160208183030381529060405292915050565b610c476110a5565b610c518383611175565b600082815260096020908152604080832080546001600160a01b0319166001600160a01b038816179055600a82529091208251610bc8928401906117f2565b600a602052600090815260409020805461074090611dc5565b610cb16110a5565b6001600160a01b038116610d165760405162461bcd60e51b815260206004820152602660248201527f4f776e61626c653a206e6577206f776e657220697320746865207a65726f206160448201526564647265737360d01b606482015260840161055c565b610d1f816110ff565b50565b6000818152600260205260409020546001600160a01b0316610d1f5760405162461bcd60e51b8152602060048201526018602482015277115490cdcc8c4e881a5b9d985b1a59081d1bdad95b88125160421b604482015260640161055c565b600081815260046020526040902080546001600160a01b0319166001600160a01b0384169081179091558190610db6826106d3565b6001600160a01b03167f8c5be1e5ebec7d5bd14f71427d1e84f3dd0314c0f7b2291e5b200ac8c7c3b92560405160405180910390a45050565b600080610dfb836106d3565b9050806001600160a01b0316846001600160a01b03161480610e4257506001600160a01b0380821660009081526005602090815260408083209388168352929052205460ff165b80610e665750836001600160a01b0316610e5b846104c0565b6001600160a01b0316145b949350505050565b826001600160a01b0316610e81826106d3565b6001600160a01b031614610ee55760405162461bcd60e51b815260206004820152602560248201527f4552433732313a207472616e736665722066726f6d20696e636f72726563742060448201526437bbb732b960d91b606482015260840161055c565b6001600160a01b038216610f475760405162461bcd60e51b8152602060048201526024808201527f4552433732313a207472616e7366657220746f20746865207a65726f206164646044820152637265737360e01b606482015260840161055c565b610f52600082610d81565b6001600160a01b0383166000908152600360205260408120805460019290610f7b90849061202f565b90915550506001600160a01b0382166000908152600360205260408120805460019290610fa9908490612046565b909155505060008181526002602052604080822080546001600160a01b0319166001600160a01b0386811691821790925591518493918716917fddf252ad1be2c89b69c2b068fc378daa952ba7f163c4a11628f55a4df523b3ef91a4505050565b6000611015826106d3565b9050611022600083610d81565b6001600160a01b038116600090815260036020526040812080546001929061104b90849061202f565b909155505060008281526002602052604080822080546001600160a01b0319169055518391906001600160a01b038416907fddf252ad1be2c89b69c2b068fc378daa952ba7f163c4a11628f55a4df523b3ef908390a45050565b6006546001600160a01b031633146108835760405162461bcd60e51b815260206004820181905260248201527f4f776e61626c653a2063616c6c6572206973206e6f7420746865206f776e6572604482015260640161055c565b600680546001600160a01b038381166001600160a01b0319831681179093556040519116919082907f8be0079c531659141344cd1fd0a4f28419497f9722a3daafe3b4186f6b6457e090600090a35050565b60008060006111608585611291565b9150915061116d816112d7565b509392505050565b6106cf828260405180602001604052806000815250611492565b816001600160a01b0316836001600160a01b031614156111f15760405162461bcd60e51b815260206004820152601960248201527f4552433732313a20617070726f766520746f2063616c6c657200000000000000604482015260640161055c565b6001600160a01b03838116600081815260056020908152604080832094871680845294825291829020805460ff191686151590811790915591519182527f17307eab39ab6107e8899845ad3d59bd9653f200f220920489ca2b5937696c31910160405180910390a3505050565b611269848484610e6e565b611275848484846114c5565b610bc85760405162461bcd60e51b815260040161055c9061205e565b6000808251604114156112c85760208301516040840151606085015160001a6112bc878285856115c3565b945094505050506112d0565b506000905060025b9250929050565b60008160048111156112eb576112eb6120b0565b14156112f45750565b6001816004811115611308576113086120b0565b14156113565760405162461bcd60e51b815260206004820152601860248201527f45434453413a20696e76616c6964207369676e61747572650000000000000000604482015260640161055c565b600281600481111561136a5761136a6120b0565b14156113b85760405162461bcd60e51b815260206004820152601f60248201527f45434453413a20696e76616c6964207369676e6174757265206c656e67746800604482015260640161055c565b60038160048111156113cc576113cc6120b0565b14156114255760405162461bcd60e51b815260206004820152602260248201527f45434453413a20696e76616c6964207369676e6174757265202773272076616c604482015261756560f01b606482015260840161055c565b6004816004811115611439576114396120b0565b1415610d1f5760405162461bcd60e51b815260206004820152602260248201527f45434453413a20696e76616c6964207369676e6174757265202776272076616c604482015261756560f01b606482015260840161055c565b61149c83836116b0565b6114a960008484846114c5565b6105fd5760405162461bcd60e51b815260040161055c9061205e565b60006001600160a01b0384163b156115b857604051630a85bd0160e11b81526001600160a01b0385169063150b7a02906115099033908990889088906004016120c6565b6020604051808303816000875af1925050508015611544575060408051601f3d908101601f1916820190925261154191810190612103565b60015b61159e573d808015611572576040519150601f19603f3d011682016040523d82523d6000602084013e611577565b606091505b5080516115965760405162461bcd60e51b815260040161055c9061205e565b805181602001fd5b6001600160e01b031916630a85bd0160e11b149050610e66565b506001949350505050565b6000807f7fffffffffffffffffffffffffffffff5d576e7357a4501ddfe92f46681b20a08311156115fa57506000905060036116a7565b8460ff16601b1415801561161257508460ff16601c14155b1561162357506000905060046116a7565b6040805160008082526020820180845289905260ff881692820192909252606081018690526080810185905260019060a0016020604051602081039080840390855afa158015611677573d6000803e3d6000fd5b5050604051601f1901519150506001600160a01b0381166116a0576000600192509250506116a7565b9150600090505b94509492505050565b6001600160a01b0382166117065760405162461bcd60e51b815260206004820181905260248201527f4552433732313a206d696e7420746f20746865207a65726f2061646472657373604482015260640161055c565b6000818152600260205260409020546001600160a01b03161561176b5760405162461bcd60e51b815260206004820152601c60248201527f4552433732313a20746f6b656e20616c7265616479206d696e74656400000000604482015260640161055c565b6001600160a01b0382166000908152600360205260408120805460019290611794908490612046565b909155505060008181526002602052604080822080546001600160a01b0319166001600160a01b03861690811790915590518392907fddf252ad1be2c89b69c2b068fc378daa952ba7f163c4a11628f55a4df523b3ef908290a45050565b8280546117fe90611dc5565b90600052602060002090601f0160209004810192826118205760008555611866565b82601f1061183957805160ff1916838001178555611866565b82800160010185558215611866579182015b8281111561186657825182559160200191906001019061184b565b50611872929150611876565b5090565b5b808211156118725760008155600101611877565b6001600160e01b031981168114610d1f57600080fd5b6000602082840312156118b357600080fd5b81356118be8161188b565b9392505050565b6000815180845260005b818110156118eb576020818501810151868301820152016118cf565b818111156118fd576000602083870101525b50601f01601f19169290920160200192915050565b6020815260006118be60208301846118c5565b60006020828403121561193757600080fd5b5035919050565b80356001600160a01b038116811461195557600080fd5b919050565b6000806040838503121561196d57600080fd5b6119768361193e565b946020939093013593505050565b60008060006060848603121561199957600080fd5b6119a28461193e565b92506119b06020850161193e565b9150604084013590509250925092565b634e487b7160e01b600052604160045260246000fd5b604051601f8201601f1916810167ffffffffffffffff811182821017156119ff576119ff6119c0565b604052919050565b600082601f830112611a1857600080fd5b813567ffffffffffffffff811115611a3257611a326119c0565b611a45601f8201601f19166020016119d6565b818152846020838601011115611a5a57600080fd5b816020850160208301376000918101602001919091529392505050565b600060208284031215611a8957600080fd5b813567ffffffffffffffff811115611aa057600080fd5b610e6684828501611a07565b600060208284031215611abe57600080fd5b6118be8261193e565b60008060008060808587031215611add57600080fd5b84359350602085013567ffffffffffffffff80821115611afc57600080fd5b611b0888838901611a07565b9450604087013593506060870135915080821115611b2557600080fd5b50611b3287828801611a07565b91505092959194509250565b600067ffffffffffffffff821115611b5857611b586119c0565b5060051b60200190565b600082601f830112611b7357600080fd5b81356020611b88611b8383611b3e565b6119d6565b82815260059290921b84018101918181019086841115611ba757600080fd5b8286015b84811015611be757803567ffffffffffffffff811115611bcb5760008081fd5b611bd98986838b0101611a07565b845250918301918301611bab565b509695505050505050565b60008060008060808587031215611c0857600080fd5b843567ffffffffffffffff80821115611c2057600080fd5b818701915087601f830112611c3457600080fd5b81356020611c44611b8383611b3e565b82815260059290921b8401810191818101908b841115611c6357600080fd5b948201945b83861015611c8157853582529482019490820190611c68565b98505088013592505080821115611c9757600080fd5b611b0888838901611b62565b60008060408385031215611cb657600080fd5b611cbf8361193e565b915060208301358015158114611cd457600080fd5b809150509250929050565b60008060008060808587031215611cf557600080fd5b611cfe8561193e565b9350611d0c6020860161193e565b925060408501359150606085013567ffffffffffffffff811115611d2f57600080fd5b611b3287828801611a07565b600080600060608486031215611d5057600080fd5b611d598461193e565b925060208401359150604084013567ffffffffffffffff811115611d7c57600080fd5b611d8886828701611a07565b9150509250925092565b60008060408385031215611da557600080fd5b611dae8361193e565b9150611dbc6020840161193e565b90509250929050565b600181811c90821680611dd957607f821691505b60208210811415611dfa57634e487b7160e01b600052602260045260246000fd5b50919050565b6020808252602e908201527f4552433732313a2063616c6c6572206973206e6f7420746f6b656e206f776e6560408201526d1c881b9bdc88185c1c1c9bdd995960921b606082015260800190565b60018060a01b0385168152836020820152608060408201526000611e7560808301856118c5565b905082606083015295945050505050565b6001600160a01b0385168152608060208083018290528551918301829052600091868201919060a0850190845b81811015611ecf57845183529383019391830191600101611eb3565b5050848103604086015286518082528282019350600581901b8201830183890160005b83811015611f2057601f19858403018752611f0e8383516118c5565b96860196925090850190600101611ef2565b5050809550505050505082606083015295945050505050565b634e487b7160e01b600052603260045260246000fd5b634e487b7160e01b600052601160045260246000fd5b6000600019821415611f7957611f79611f4f565b5060010190565b8054600090600181811c9080831680611f9a57607f831692505b6020808410821415611fbc57634e487b7160e01b600052602260045260246000fd5b818015611fd05760018114611fe15761200e565b60ff1986168952848901965061200e565b60008881526020902060005b868110156120065781548b820152908501908301611fed565b505084890196505b50505050505092915050565b6000610e666120298386611f80565b84611f80565b60008282101561204157612041611f4f565b500390565b6000821982111561205957612059611f4f565b500190565b60208082526032908201527f4552433732313a207472616e7366657220746f206e6f6e20455243373231526560408201527131b2b4bb32b91034b6b83632b6b2b73a32b960711b606082015260800190565b634e487b7160e01b600052602160045260246000fd5b6001600160a01b03858116825284166020820152604081018390526080606082018190526000906120f9908301846118c5565b9695505050505050565b60006020828403121561211557600080fd5b81516118be8161188b56fea26469706673582212207462f961642aa66f2b11d9ac4499638fc0eb963296752c2596fc61556649874464736f6c634300080c003360806040523480156200001157600080fd5b506040516200294d3803806200294d83398101604081905262000034916200017a565b80620000408162000053565b506200004c336200006c565b5062000293565b805162000068906002906020840190620000be565b5050565b600380546001600160a01b038381166001600160a01b0319831681179093556040519116919082907f8be0079c531659141344cd1fd0a4f28419497f9722a3daafe3b4186f6b6457e090600090a35050565b828054620000cc9062000256565b90600052602060002090601f016020900481019282620000f057600085556200013b565b82601f106200010b57805160ff19168380011785556200013b565b828001600101855582156200013b579182015b828111156200013b5782518255916020019190600101906200011e565b50620001499291506200014d565b5090565b5b808211156200014957600081556001016200014e565b634e487b7160e01b600052604160045260246000fd5b600060208083850312156200018e57600080fd5b82516001600160401b0380821115620001a657600080fd5b818501915085601f830112620001bb57600080fd5b815181811115620001d057620001d062000164565b604051601f8201601f19908116603f01168101908382118183101715620001fb57620001fb62000164565b8160405282815288868487010111156200021457600080fd5b600093505b8284101562000238578484018601518185018701529285019262000219565b828411156200024a5760008684830101525b98975050505050505050565b600181811c908216806200026b57607f821691505b602082108114156200028d57634e487b7160e01b600052602260045260246000fd5b50919050565b6126aa80620002a36000396000f3fe608060405234801561001057600080fd5b506004361061012b5760003560e01c806383ca4b6f116100ad578063d88ce36a11610071578063d88ce36a14610297578063e985e9c5146102aa578063ebaa470c146102e6578063f242432a146102f9578063f2fde38b1461030c57600080fd5b806383ca4b6f1461023a5780638da5cb5b1461024d578063909cdcf01461025e578063a22cb46514610271578063b390c0ab1461028457600080fd5b80632eb2c2d6116100f45780632eb2c2d6146101d95780634e1273f4146101ec5780636c19e7831461020c578063715018a61461021f578063731133e91461022757600080fd5b8062fdd58e1461013057806301ffc9a71461015657806302fe5305146101795780630e89341c1461018e578063238ac933146101ae575b600080fd5b61014361013e366004611967565b61031f565b6040519081526020015b60405180910390f35b6101696101643660046119a7565b6103b5565b604051901515815260200161014d565b61018c610187366004611a6a565b610407565b005b6101a161019c366004611aba565b61041b565b60405161014d9190611b20565b6004546101c1906001600160a01b031681565b6040516001600160a01b03909116815260200161014d565b61018c6101e7366004611be7565b6104af565b6101ff6101fa366004611c90565b6104fb565b60405161014d9190611d95565b61018c61021a366004611da8565b610624565b61018c61064e565b61018c610235366004611e04565b610662565b61018c610248366004611e6b565b6106ac565b6003546001600160a01b03166101c1565b61018c61026c366004611eb7565b6106bb565b61018c61027f366004611f3b565b61081f565b61018c610292366004611f77565b61082a565b61018c6102a5366004611f99565b610835565b6101696102b8366004612027565b6001600160a01b03918216600090815260016020908152604080832093909416825291909152205460ff1690565b61018c6102f436600461205a565b61087f565b61018c6103073660046120ce565b61097a565b61018c61031a366004611da8565b6109bf565b60006001600160a01b03831661038f5760405162461bcd60e51b815260206004820152602a60248201527f455243313135353a2061646472657373207a65726f206973206e6f742061207660448201526930b634b21037bbb732b960b11b60648201526084015b60405180910390fd5b506000908152602081815260408083206001600160a01b03949094168352929052205490565b60006001600160e01b03198216636cdb3d1360e11b14806103e657506001600160e01b031982166303a24d0760e21b145b8061040157506301ffc9a760e01b6001600160e01b03198316145b92915050565b61040f610a35565b61041881610a8f565b50565b60606002805461042a90612132565b80601f016020809104026020016040519081016040528092919081815260200182805461045690612132565b80156104a35780601f10610478576101008083540402835291602001916104a3565b820191906000526020600020905b81548152906001019060200180831161048657829003601f168201915b50505050509050919050565b6001600160a01b0385163314806104cb57506104cb85336102b8565b6104e75760405162461bcd60e51b81526004016103869061216d565b6104f48585858585610aa2565b5050505050565b606081518351146105605760405162461bcd60e51b815260206004820152602960248201527f455243313135353a206163636f756e747320616e6420696473206c656e677468604482015268040dad2e6dac2e8c6d60bb1b6064820152608401610386565b600083516001600160401b0381111561057b5761057b6119cb565b6040519080825280602002602001820160405280156105a4578160200160208202803683370190505b50905060005b845181101561061c576105ef8582815181106105c8576105c86121bc565b60200260200101518583815181106105e2576105e26121bc565b602002602001015161031f565b828281518110610601576106016121bc565b6020908102919091010152610615816121e8565b90506105aa565b509392505050565b61062c610a35565b600480546001600160a01b0319166001600160a01b0392909216919091179055565b610656610a35565b6106606000610c3e565b565b61066a610a35565b6104f485858585858080601f016020809104026020016040519081016040528093929190818152602001838380828437600092019190915250610c9092505050565b6106b7338383610d61565b5050565b814211156106f45760405162461bcd60e51b815260206004820152600660248201526565787069726560d01b6044820152606401610386565b60006107743388888888886040516020016107149695949392919061222c565b60408051601f1981840301815282825280516020918201207f19457468657265756d205369676e6564204d6573736167653a0a33320000000084830152603c8085019190915282518085039091018152605c909301909152815191012090565b6004549091506001600160a01b031661078d8284610eec565b6001600160a01b0316146107d45760405162461bcd60e51b815260206004820152600e60248201526d34b73b30b634b21039b4b3b732b960911b6044820152606401610386565b61081633888888888080601f016020809104026020016040519081016040528093929190818152602001838380828437600092019190915250610c9092505050565b50505050505050565b6106b7338383610f08565b6106b7338383610fe9565b61083d610a35565b6104f485858585858080601f0160208091040260200160405190810160405280939291908181526020018383808284376000920191909152506110ed92505050565b814211156108b85760405162461bcd60e51b815260206004820152600660248201526565787069726560d01b6044820152606401610386565b60006108d83388888888886040516020016107149695949392919061226d565b6004549091506001600160a01b03166108f18284610eec565b6001600160a01b0316146109385760405162461bcd60e51b815260206004820152600e60248201526d34b73b30b634b21039b4b3b732b960911b6044820152606401610386565b61081633888888888080601f0160208091040260200160405190810160405280939291908181526020018383808284376000920191909152506110ed92505050565b6001600160a01b038516331480610996575061099685336102b8565b6109b25760405162461bcd60e51b81526004016103869061216d565b6104f48585858585611238565b6109c7610a35565b6001600160a01b038116610a2c5760405162461bcd60e51b815260206004820152602660248201527f4f776e61626c653a206e6577206f776e657220697320746865207a65726f206160448201526564647265737360d01b6064820152608401610386565b61041881610c3e565b6003546001600160a01b031633146106605760405162461bcd60e51b815260206004820181905260248201527f4f776e61626c653a2063616c6c6572206973206e6f7420746865206f776e65726044820152606401610386565b80516106b79060029060208401906118b2565b8151835114610ac35760405162461bcd60e51b8152600401610386906122cc565b6001600160a01b038416610ae95760405162461bcd60e51b815260040161038690612314565b3360005b8451811015610bd0576000858281518110610b0a57610b0a6121bc565b602002602001015190506000858381518110610b2857610b286121bc565b602090810291909101810151600084815280835260408082206001600160a01b038e168352909352919091205490915081811015610b785760405162461bcd60e51b815260040161038690612359565b6000838152602081815260408083206001600160a01b038e8116855292528083208585039055908b16825281208054849290610bb59084906123a3565b9250508190555050505080610bc9906121e8565b9050610aed565b50846001600160a01b0316866001600160a01b0316826001600160a01b03167f4a39dc06d4c0dbc64b70af90fd698a233a518aa5d07e595d983b8c0526c8f7fb8787604051610c209291906123bb565b60405180910390a4610c36818787878787611362565b505050505050565b600380546001600160a01b038381166001600160a01b0319831681179093556040519116919082907f8be0079c531659141344cd1fd0a4f28419497f9722a3daafe3b4186f6b6457e090600090a35050565b6001600160a01b038416610cb65760405162461bcd60e51b8152600401610386906123e9565b336000610cc2856114be565b90506000610ccf856114be565b90506000868152602081815260408083206001600160a01b038b16845290915281208054879290610d019084906123a3565b909155505060408051878152602081018790526001600160a01b03808a1692600092918716917fc3d58168c5ae7397731d063d5bbf3d657854427343f4c083240f7aacaa2d0f62910160405180910390a461081683600089898989611509565b6001600160a01b038316610d875760405162461bcd60e51b81526004016103869061242a565b8051825114610da85760405162461bcd60e51b8152600401610386906122cc565b604080516020810190915260009081905233905b8351811015610e7e576000848281518110610dd957610dd96121bc565b602002602001015190506000848381518110610df757610df76121bc565b602090810291909101810151600084815280835260408082206001600160a01b038c168352909352919091205490915081811015610e475760405162461bcd60e51b81526004016103869061246d565b6000928352602083815260408085206001600160a01b038b1686529091529092209103905580610e76816121e8565b915050610dbc565b5060006001600160a01b0316846001600160a01b0316826001600160a01b03167f4a39dc06d4c0dbc64b70af90fd698a233a518aa5d07e595d983b8c0526c8f7fb8686604051610ecf9291906123bb565b60405180910390a460408051602081019091526000905250505050565b6000806000610efb85856115c4565b9150915061061c8161160a565b816001600160a01b0316836001600160a01b03161415610f7c5760405162461bcd60e51b815260206004820152602960248201527f455243313135353a2073657474696e6720617070726f76616c20737461747573604482015268103337b91039b2b63360b91b6064820152608401610386565b6001600160a01b03838116600081815260016020908152604080832094871680845294825291829020805460ff191686151590811790915591519182527f17307eab39ab6107e8899845ad3d59bd9653f200f220920489ca2b5937696c31910160405180910390a3505050565b6001600160a01b03831661100f5760405162461bcd60e51b81526004016103869061242a565b33600061101b846114be565b90506000611028846114be565b60408051602080820183526000918290528882528181528282206001600160a01b038b16835290522054909150848110156110755760405162461bcd60e51b81526004016103869061246d565b6000868152602081815260408083206001600160a01b038b81168086529184528285208a8703905582518b81529384018a90529092908816917fc3d58168c5ae7397731d063d5bbf3d657854427343f4c083240f7aacaa2d0f62910160405180910390a4604080516020810190915260009052610816565b6001600160a01b0384166111135760405162461bcd60e51b8152600401610386906123e9565b81518351146111345760405162461bcd60e51b8152600401610386906122cc565b3360005b84518110156111d057838181518110611153576111536121bc565b6020026020010151600080878481518110611170576111706121bc565b602002602001015181526020019081526020016000206000886001600160a01b03166001600160a01b0316815260200190815260200160002060008282546111b891906123a3565b909155508190506111c8816121e8565b915050611138565b50846001600160a01b031660006001600160a01b0316826001600160a01b03167f4a39dc06d4c0dbc64b70af90fd698a233a518aa5d07e595d983b8c0526c8f7fb87876040516112219291906123bb565b60405180910390a46104f481600087878787611362565b6001600160a01b03841661125e5760405162461bcd60e51b815260040161038690612314565b33600061126a856114be565b90506000611277856114be565b90506000868152602081815260408083206001600160a01b038c168452909152902054858110156112ba5760405162461bcd60e51b815260040161038690612359565b6000878152602081815260408083206001600160a01b038d8116855292528083208985039055908a168252812080548892906112f79084906123a3565b909155505060408051888152602081018890526001600160a01b03808b16928c821692918816917fc3d58168c5ae7397731d063d5bbf3d657854427343f4c083240f7aacaa2d0f62910160405180910390a4611357848a8a8a8a8a611509565b505050505050505050565b6001600160a01b0384163b15610c365760405163bc197c8160e01b81526001600160a01b0385169063bc197c81906113a690899089908890889088906004016124b1565b6020604051808303816000875af19250505080156113e1575060408051601f3d908101601f191682019092526113de9181019061250f565b60015b61148e576113ed61252c565b806308c379a014156114275750611402612548565b8061140d5750611429565b8060405162461bcd60e51b81526004016103869190611b20565b505b60405162461bcd60e51b815260206004820152603460248201527f455243313135353a207472616e7366657220746f206e6f6e20455243313135356044820152732932b1b2b4bb32b91034b6b83632b6b2b73a32b960611b6064820152608401610386565b6001600160e01b0319811663bc197c8160e01b146108165760405162461bcd60e51b8152600401610386906125d1565b604080516001808252818301909252606091600091906020808301908036833701905050905082816000815181106114f8576114f86121bc565b602090810291909101015292915050565b6001600160a01b0384163b15610c365760405163f23a6e6160e01b81526001600160a01b0385169063f23a6e619061154d9089908990889088908890600401612619565b6020604051808303816000875af1925050508015611588575060408051601f3d908101601f191682019092526115859181019061250f565b60015b611594576113ed61252c565b6001600160e01b0319811663f23a6e6160e01b146108165760405162461bcd60e51b8152600401610386906125d1565b6000808251604114156115fb5760208301516040840151606085015160001a6115ef878285856117c5565b94509450505050611603565b506000905060025b9250929050565b600081600481111561161e5761161e61265e565b14156116275750565b600181600481111561163b5761163b61265e565b14156116895760405162461bcd60e51b815260206004820152601860248201527f45434453413a20696e76616c6964207369676e617475726500000000000000006044820152606401610386565b600281600481111561169d5761169d61265e565b14156116eb5760405162461bcd60e51b815260206004820152601f60248201527f45434453413a20696e76616c6964207369676e6174757265206c656e677468006044820152606401610386565b60038160048111156116ff576116ff61265e565b14156117585760405162461bcd60e51b815260206004820152602260248201527f45434453413a20696e76616c6964207369676e6174757265202773272076616c604482015261756560f01b6064820152608401610386565b600481600481111561176c5761176c61265e565b14156104185760405162461bcd60e51b815260206004820152602260248201527f45434453413a20696e76616c6964207369676e6174757265202776272076616c604482015261756560f01b6064820152608401610386565b6000807f7fffffffffffffffffffffffffffffff5d576e7357a4501ddfe92f46681b20a08311156117fc57506000905060036118a9565b8460ff16601b1415801561181457508460ff16601c14155b1561182557506000905060046118a9565b6040805160008082526020820180845289905260ff881692820192909252606081018690526080810185905260019060a0016020604051602081039080840390855afa158015611879573d6000803e3d6000fd5b5050604051601f1901519150506001600160a01b0381166118a2576000600192509250506118a9565b9150600090505b94509492505050565b8280546118be90612132565b90600052602060002090601f0160209004810192826118e05760008555611926565b82601f106118f957805160ff1916838001178555611926565b82800160010185558215611926579182015b8281111561192657825182559160200191906001019061190b565b50611932929150611936565b5090565b5b808211156119325760008155600101611937565b80356001600160a01b038116811461196257600080fd5b919050565b6000806040838503121561197a57600080fd5b6119838361194b565b946020939093013593505050565b6001600160e01b03198116811461041857600080fd5b6000602082840312156119b957600080fd5b81356119c481611991565b9392505050565b634e487b7160e01b600052604160045260246000fd5b601f8201601f191681016001600160401b0381118282101715611a0657611a066119cb565b6040525050565b60006001600160401b03831115611a2657611a266119cb565b604051611a3d601f8501601f1916602001826119e1565b809150838152848484011115611a5257600080fd5b83836020830137600060208583010152509392505050565b600060208284031215611a7c57600080fd5b81356001600160401b03811115611a9257600080fd5b8201601f81018413611aa357600080fd5b611ab284823560208401611a0d565b949350505050565b600060208284031215611acc57600080fd5b5035919050565b6000815180845260005b81811015611af957602081850181015186830182015201611add565b81811115611b0b576000602083870101525b50601f01601f19169290920160200192915050565b6020815260006119c46020830184611ad3565b60006001600160401b03821115611b4c57611b4c6119cb565b5060051b60200190565b600082601f830112611b6757600080fd5b81356020611b7482611b33565b604051611b8182826119e1565b83815260059390931b8501820192828101915086841115611ba157600080fd5b8286015b84811015611bbc5780358352918301918301611ba5565b509695505050505050565b600082601f830112611bd857600080fd5b6119c483833560208501611a0d565b600080600080600060a08688031215611bff57600080fd5b611c088661194b565b9450611c166020870161194b565b935060408601356001600160401b0380821115611c3257600080fd5b611c3e89838a01611b56565b94506060880135915080821115611c5457600080fd5b611c6089838a01611b56565b93506080880135915080821115611c7657600080fd5b50611c8388828901611bc7565b9150509295509295909350565b60008060408385031215611ca357600080fd5b82356001600160401b0380821115611cba57600080fd5b818501915085601f830112611cce57600080fd5b81356020611cdb82611b33565b604051611ce882826119e1565b83815260059390931b8501820192828101915089841115611d0857600080fd5b948201945b83861015611d2d57611d1e8661194b565b82529482019490820190611d0d565b96505086013592505080821115611d4357600080fd5b50611d5085828601611b56565b9150509250929050565b600081518084526020808501945080840160005b83811015611d8a57815187529582019590820190600101611d6e565b509495945050505050565b6020815260006119c46020830184611d5a565b600060208284031215611dba57600080fd5b6119c48261194b565b60008083601f840112611dd557600080fd5b5081356001600160401b03811115611dec57600080fd5b60208301915083602082850101111561160357600080fd5b600080600080600060808688031215611e1c57600080fd5b611e258661194b565b9450602086013593506040860135925060608601356001600160401b03811115611e4e57600080fd5b611e5a88828901611dc3565b969995985093965092949392505050565b60008060408385031215611e7e57600080fd5b82356001600160401b0380821115611e9557600080fd5b611ea186838701611b56565b93506020850135915080821115611d4357600080fd5b60008060008060008060a08789031215611ed057600080fd5b863595506020870135945060408701356001600160401b0380821115611ef557600080fd5b611f018a838b01611dc3565b9096509450606089013593506080890135915080821115611f2157600080fd5b50611f2e89828a01611bc7565b9150509295509295509295565b60008060408385031215611f4e57600080fd5b611f578361194b565b915060208301358015158114611f6c57600080fd5b809150509250929050565b60008060408385031215611f8a57600080fd5b50508035926020909101359150565b600080600080600060808688031215611fb157600080fd5b611fba8661194b565b945060208601356001600160401b0380821115611fd657600080fd5b611fe289838a01611b56565b95506040880135915080821115611ff857600080fd5b61200489838a01611b56565b9450606088013591508082111561201a57600080fd5b50611e5a88828901611dc3565b6000806040838503121561203a57600080fd5b6120438361194b565b91506120516020840161194b565b90509250929050565b60008060008060008060a0878903121561207357600080fd5b86356001600160401b038082111561208a57600080fd5b6120968a838b01611b56565b975060208901359150808211156120ac57600080fd5b6120b88a838b01611b56565b96506040890135915080821115611ef557600080fd5b600080600080600060a086880312156120e657600080fd5b6120ef8661194b565b94506120fd6020870161194b565b9350604086013592506060860135915060808601356001600160401b0381111561212657600080fd5b611c8388828901611bc7565b600181811c9082168061214657607f821691505b6020821081141561216757634e487b7160e01b600052602260045260246000fd5b50919050565b6020808252602f908201527f455243313135353a2063616c6c6572206973206e6f7420746f6b656e206f776e60408201526e195c881b9bdc88185c1c1c9bdd9959608a1b606082015260800190565b634e487b7160e01b600052603260045260246000fd5b634e487b7160e01b600052601160045260246000fd5b60006000198214156121fc576121fc6121d2565b5060010190565b81835281816020850137506000828201602090810191909152601f909101601f19169091010190565b60018060a01b038716815285602082015284604082015260a06060820152600061225a60a083018587612203565b9050826080830152979650505050505050565b6001600160a01b038716815260a06020820181905260009061229190830188611d5a565b82810360408401526122a38188611d5a565b905082810360608401526122b8818688612203565b915050826080830152979650505050505050565b60208082526028908201527f455243313135353a2069647320616e6420616d6f756e7473206c656e677468206040820152670dad2e6dac2e8c6d60c31b606082015260800190565b60208082526025908201527f455243313135353a207472616e7366657220746f20746865207a65726f206164604082015264647265737360d81b606082015260800190565b6020808252602a908201527f455243313135353a20696e73756666696369656e742062616c616e636520666f60408201526939103a3930b739b332b960b11b606082015260800190565b600082198211156123b6576123b66121d2565b500190565b6040815260006123ce6040830185611d5a565b82810360208401526123e08185611d5a565b95945050505050565b60208082526021908201527f455243313135353a206d696e7420746f20746865207a65726f206164647265736040820152607360f81b606082015260800190565b60208082526023908201527f455243313135353a206275726e2066726f6d20746865207a65726f206164647260408201526265737360e81b606082015260800190565b60208082526024908201527f455243313135353a206275726e20616d6f756e7420657863656564732062616c604082015263616e636560e01b606082015260800190565b6001600160a01b0386811682528516602082015260a0604082018190526000906124dd90830186611d5a565b82810360608401526124ef8186611d5a565b905082810360808401526125038185611ad3565b98975050505050505050565b60006020828403121561252157600080fd5b81516119c481611991565b600060033d11156125455760046000803e5060005160e01c5b90565b600060443d10156125565790565b6040516003193d81016004833e81513d6001600160401b03816024840111818411171561258557505050505090565b828501915081518181111561259d5750505050505090565b843d87010160208285010111156125b75750505050505090565b6125c6602082860101876119e1565b509095945050505050565b60208082526028908201527f455243313135353a204552433131353552656365697665722072656a656374656040820152676420746f6b656e7360c01b606082015260800190565b6001600160a01b03868116825285166020820152604081018490526060810183905260a06080820181905260009061265390830184611ad3565b979650505050505050565b634e487b7160e01b600052602160045260246000fdfea26469706673582212208975f05326d39576858838a305d89408fac77f8101645201e74068dafb44855d64736f6c634300080c0033a2646970667358221220cbd3b7bae47a331a6b2b3490ab378754b412e17d83c0c3f0047ac02141e4cac264736f6c634300080c0033",
  "linkReferences": {},
  "deployedLinkReferences": {}
}