{
  "_format": "hh-sol-artifact-1",
  "contractName": "Port3ERC1155Factory",
  "sourceName": "contracts/Port3ERC1155Factory.sol",
  "abi": [
    {
      "inputs": [
        {
          "internalType": "address",
          "name": "_signer",
          "type": "address"
        }
      ],
      "stateMutability": "nonpayable",
      "type": "constructor"
    },
    {
      "anonymous": false,
      "inputs": [
        {
          "indexed": true,
          "internalType": "address",
          "name": "previousOwner",
          "type": "address"
        },
        {
          "indexed": true,
          "internalType": "address",
          "name": "newOwner",
          "type": "address"
        }
      ],
      "name": "OwnershipTransferred",
      "type": "event"
    },
    {
      "anonymous": false,
      "inputs": [
        {
          "indexed": true,
          "internalType": "address",
          "name": "sender",
          "type": "address"
        },
        {
          "indexed": false,
          "internalType": "address",
          "name": "nft",
          "type": "address"
        }
      ],
      "name": "Port3ERC1155Created",
      "type": "event"
    },
    {
      "inputs": [
        {
          "internalType": "string",
          "name": "baseURI",
          "type": "string"
        },
        {
          "internalType": "bool",
          "name": "transferable",
          "type": "bool"
        }
      ],
      "name": "createPort3ERC1155",
      "outputs": [],
      "stateMutability": "nonpayable",
      "type": "function"
    },
    {
      "inputs": [],
      "name": "owner",
      "outputs": [
        {
          "internalType": "address",
          "name": "",
          "type": "address"
        }
      ],
      "stateMutability": "view",
      "type": "function"
    },
    {
      "inputs": [],
      "name": "renounceOwnership",
      "outputs": [],
      "stateMutability": "nonpayable",
      "type": "function"
    },
    {
      "inputs": [
        {
          "internalType": "address",
          "name": "account",
          "type": "address"
        }
      ],
      "name": "setSigner",
      "outputs": [],
      "stateMutability": "nonpayable",
      "type": "function"
    },
    {
      "inputs": [],
      "name": "signer",
      "outputs": [
        {
          "internalType": "address",
          "name": "",
          "type": "address"
        }
      ],
      "stateMutability": "view",
      "type": "function"
    },
    {
      "inputs": [
        {
          "internalType": "address",
          "name": "newOwner",
          "type": "address"
        }
      ],
      "name": "transferOwnership",
      "outputs": [],
      "stateMutability": "nonpayable",
      "type": "function"
    }
  ],
  "bytecode": "0x608060405234801561001057600080fd5b5060405161385538038061385583398101604081905261002f916100ad565b6100383361005d565b600180546001600160a01b0319166001600160a01b03929092169190911790556100dd565b600080546001600160a01b038381166001600160a01b0319831681178455604051919092169283917f8be0079c531659141344cd1fd0a4f28419497f9722a3daafe3b4186f6b6457e09190a35050565b6000602082840312156100bf57600080fd5b81516001600160a01b03811681146100d657600080fd5b9392505050565b613769806100ec6000396000f3fe608060405234801561001057600080fd5b50600436106100625760003560e01c8063238ac933146100675780636c19e78314610096578063715018a6146100ab5780638da5cb5b146100b35780639d5d2f84146100c4578063f2fde38b146100d7575b600080fd5b60015461007a906001600160a01b031681565b6040516001600160a01b03909116815260200160405180910390f35b6100a96100a4366004610596565b6100ea565b005b6100a9610114565b6000546001600160a01b031661007a565b6100a96100d23660046105c6565b610128565b6100a96100e5366004610596565b610356565b6100f26103d4565b600180546001600160a01b0319166001600160a01b0392909216919091179055565b61011c6103d4565b610126600061042e565b565b60006040518060200161013a90610588565b601f1982820381018352601f9091011660408190526101619086908690869060200161064e565b60408051601f198184030181529082905261017f92916020016106b6565b6040516020818303038152906040529050600033438686866040516020016101ab9594939291906106e5565b60405160208183030381529060405280519060200120905060006101d16000838561047e565b9050806001600160a01b03166355f804b387876040516020016101f5929190610721565b6040516020818303038152906040526040518263ffffffff1660e01b81526004016102209190610731565b600060405180830381600087803b15801561023a57600080fd5b505af115801561024e573d6000803e3d6000fd5b5050600154604051636c19e78360e01b81526001600160a01b0391821660048201529084169250636c19e7839150602401600060405180830381600087803b15801561029957600080fd5b505af11580156102ad573d6000803e3d6000fd5b505060015460405163f2fde38b60e01b81526001600160a01b039182166004820152908416925063f2fde38b9150602401600060405180830381600087803b1580156102f857600080fd5b505af115801561030c573d6000803e3d6000fd5b50506040516001600160a01b03841681523392507ffb78fa7f7bda92a3e046badc77c0e4db5c5abdddd2df824c4a8c02609e649b35915060200160405180910390a2505050505050565b61035e6103d4565b6001600160a01b0381166103c85760405162461bcd60e51b815260206004820152602660248201527f4f776e61626c653a206e6577206f776e657220697320746865207a65726f206160448201526564647265737360d01b60648201526084015b60405180910390fd5b6103d18161042e565b50565b6000546001600160a01b031633146101265760405162461bcd60e51b815260206004820181905260248201527f4f776e61626c653a2063616c6c6572206973206e6f7420746865206f776e657260448201526064016103bf565b600080546001600160a01b038381166001600160a01b0319831681178455604051919092169283917f8be0079c531659141344cd1fd0a4f28419497f9722a3daafe3b4186f6b6457e09190a35050565b600080844710156104d15760405162461bcd60e51b815260206004820152601d60248201527f437265617465323a20696e73756666696369656e742062616c616e636500000060448201526064016103bf565b825161051f5760405162461bcd60e51b815260206004820181905260248201527f437265617465323a2062797465636f6465206c656e677468206973207a65726f60448201526064016103bf565b8383516020850187f590506001600160a01b0381166105805760405162461bcd60e51b815260206004820152601960248201527f437265617465323a204661696c6564206f6e206465706c6f790000000000000060448201526064016103bf565b949350505050565b612fcf806200076583390190565b6000602082840312156105a857600080fd5b81356001600160a01b03811681146105bf57600080fd5b9392505050565b6000806000604084860312156105db57600080fd5b833567ffffffffffffffff808211156105f357600080fd5b818601915086601f83011261060757600080fd5b81358181111561061657600080fd5b87602082850101111561062857600080fd5b60209283019550935050840135801515811461064357600080fd5b809150509250925092565b6040815282604082015282846060830137600060608483018101919091529115156020820152601f909201601f191690910101919050565b60005b838110156106a1578181015183820152602001610689565b838111156106b0576000848401525b50505050565b600083516106c8818460208801610686565b8351908301906106dc818360208801610686565b01949350505050565b6bffffffffffffffffffffffff198660601b1681528460148201528284603483013790151560f81b910160348101919091526035019392505050565b8183823760009101908152919050565b6020815260008251806020840152610750816040850160208701610686565b601f01601f1916919091016040019291505056fe60a06040819052600060808190526200001b91600391620000fd565b503480156200002957600080fd5b5060405162002fcf38038062002fcf8339810160408190526200004c91620001cf565b81620000588162000092565b506200006433620000ab565b6005805460ff60a01b1990811690915560068054921515600160a01b029290911691909117905550620002fd565b8051620000a7906002906020840190620000fd565b5050565b600580546001600160a01b038381166001600160a01b0319831681179093556040519116919082907f8be0079c531659141344cd1fd0a4f28419497f9722a3daafe3b4186f6b6457e090600090a35050565b8280546200010b90620002c0565b90600052602060002090601f0160209004810192826200012f57600085556200017a565b82601f106200014a57805160ff19168380011785556200017a565b828001600101855582156200017a579182015b828111156200017a5782518255916020019190600101906200015d565b50620001889291506200018c565b5090565b5b808211156200018857600081556001016200018d565b634e487b7160e01b600052604160045260246000fd5b80518015158114620001ca57600080fd5b919050565b60008060408385031215620001e357600080fd5b82516001600160401b0380821115620001fb57600080fd5b818501915085601f8301126200021057600080fd5b815181811115620002255762000225620001a3565b604051601f8201601f19908116603f01168101908382118183101715620002505762000250620001a3565b816040528281526020935088848487010111156200026d57600080fd5b600091505b8282101562000291578482018401518183018501529083019062000272565b82821115620002a35760008484830101525b9550620002b5915050858201620001b9565b925050509250929050565b600181811c90821680620002d557607f821691505b60208210811415620002f757634e487b7160e01b600052602260045260246000fd5b50919050565b612cc2806200030d6000396000f3fe608060405234801561001057600080fd5b50600436106101a85760003560e01c80635c975abb116100f9578063909cdcf011610097578063b390c0ab11610071578063b390c0ab1461039b578063e985e9c5146103ae578063f242432a146103ea578063f2fde38b146103fd57600080fd5b8063909cdcf01461036157806392ff0d3114610374578063a22cb4651461038857600080fd5b8063731133e9116100d3578063731133e91461032257806383ca4b6f146103355780638456cb59146103485780638da5cb5b1461035057600080fd5b80635c975abb146102f55780636c19e78314610307578063715018a61461031a57600080fd5b8063238ac9331161016657806338a699a41161014057806338a699a4146102975780633f4ba83a146102ba5780634e1273f4146102c257806355f804b3146102e257600080fd5b8063238ac933146102515780632eb2c2d61461027c57806337d8b9951461028f57600080fd5b8062fdd58e146101ad57806301ffc9a7146101d357806302fe5305146101f657806308eeccc71461020b5780630e89341c1461021e5780631f7fdffa1461023e575b600080fd5b6101c06101bb366004611ec1565b610410565b6040519081526020015b60405180910390f35b6101e66101e1366004611f01565b6104a6565b60405190151581526020016101ca565b610209610204366004611fbd565b6104f8565b005b610209610219366004612102565b61050c565b61023161022c3660046121bc565b6106a1565b6040516101ca919061222d565b61020961024c366004612240565b610781565b600654610264906001600160a01b031681565b6040516001600160a01b0390911681526020016101ca565b61020961028a3660046122df565b6107d2565b610209610817565b6101e66102a53660046121bc565b60076020526000908152604090205460ff1681565b610209610840565b6102d56102d0366004612388565b610852565b6040516101ca919061248d565b6102096102f0366004611fbd565b61097b565b600554600160a01b900460ff166101e6565b6102096103153660046124a0565b61098c565b6102096109b6565b6102096103303660046124bb565b6109c8565b610209610343366004612511565b610a12565b610209610a29565b6005546001600160a01b0316610264565b61020961036f36600461255d565b610a39565b6006546101e690600160a01b900460ff1681565b61020961039636600461259b565b610bc4565b6102096103a93660046125d7565b610bcf565b6101e66103bc3660046125f9565b6001600160a01b03918216600090815260016020908152604080832093909416825291909152205460ff1690565b6102096103f836600461262c565b610be2565b61020961040b3660046124a0565b610c27565b60006001600160a01b0383166104805760405162461bcd60e51b815260206004820152602a60248201527f455243313135353a2061646472657373207a65726f206973206e6f742061207660448201526930b634b21037bbb732b960b11b60648201526084015b60405180910390fd5b506000908152602081815260408083206001600160a01b03949094168352929052205490565b60006001600160e01b03198216636cdb3d1360e11b14806104d757506001600160e01b031982166303a24d0760e21b145b806104f257506301ffc9a760e01b6001600160e01b03198316145b92915050565b610500610c9d565b61050981610cf7565b50565b610514610d0a565b8142111561054d5760405162461bcd60e51b815260206004820152600660248201526565787069726560d01b6044820152606401610477565b600033878787878760405160200161056a969594939291906126b9565b604051602081830303815290604052805190602001209050600061058d82610d57565b6006549091506001600160a01b03166105a68285610daa565b6001600160a01b0316146105ed5760405162461bcd60e51b815260206004820152600e60248201526d34b73b30b634b21039b4b3b732b960911b6044820152606401610477565b60008281526007602052604090205460ff161561063b5760405162461bcd60e51b815260206004820152600c60248201526b185b1c9958591e481b5a5b9d60a21b6044820152606401610477565b600082815260076020908152604091829020805460ff191660011790558151601f88018290048202810182019092528682526106979133918b918b918b908b9081908401838280828437600092019190915250610dc692505050565b5050505050505050565b6000818152600460205260408120805460609291906106bf90612718565b80601f01602080910402602001604051908101604052809291908181526020018280546106eb90612718565b80156107385780601f1061070d57610100808354040283529160200191610738565b820191906000526020600020905b81548152906001019060200180831161071b57829003601f168201915b5050505050905060008151116107565761075183610f20565b61077a565b60038160405160200161076a92919061276f565b6040516020818303038152906040525b9392505050565b610789610c9d565b6107cb85858585858080601f016020809104026020016040519081016040528093929190818152602001838380828437600092019190915250610dc692505050565b5050505050565b6001600160a01b0385163314806107ee57506107ee85336103bc565b61080a5760405162461bcd60e51b815260040161047790612816565b6107cb8585858585610fb4565b61081f610c9d565b6006805460ff60a01b198116600160a01b9182900460ff1615909102179055565b610848610c9d565b61085061115e565b565b606081518351146108b75760405162461bcd60e51b815260206004820152602960248201527f455243313135353a206163636f756e747320616e6420696473206c656e677468604482015268040dad2e6dac2e8c6d60bb1b6064820152608401610477565b600083516001600160401b038111156108d2576108d2611f1e565b6040519080825280602002602001820160405280156108fb578160200160208202803683370190505b50905060005b84518110156109735761094685828151811061091f5761091f612865565b602002602001015185838151811061093957610939612865565b6020026020010151610410565b82828151811061095857610958612865565b602090810291909101015261096c81612891565b9050610901565b509392505050565b610983610c9d565b610509816111b3565b610994610c9d565b600680546001600160a01b0319166001600160a01b0392909216919091179055565b6109be610c9d565b61085060006111c6565b6109d0610c9d565b6107cb85858585858080601f01602080910402602001604051908101604052809392919081815260200183838082843760009201919091525061121892505050565b610a1a610d0a565b610a25338383611301565b5050565b610a31610c9d565b61085061149f565b610a41610d0a565b81421115610a7a5760405162461bcd60e51b815260206004820152600660248201526565787069726560d01b6044820152606401610477565b6000338787878787604051602001610a97969594939291906128ac565b6040516020818303038152906040528051906020012090506000610aba82610d57565b6006549091506001600160a01b0316610ad38285610daa565b6001600160a01b031614610b1a5760405162461bcd60e51b815260206004820152600e60248201526d34b73b30b634b21039b4b3b732b960911b6044820152606401610477565b60008281526007602052604090205460ff1615610b685760405162461bcd60e51b815260206004820152600c60248201526b185b1c9958591e481b5a5b9d60a21b6044820152606401610477565b600082815260076020908152604091829020805460ff191660011790558151601f88018290048202810182019092528682526106979133918b918b918b908b908190840183828082843760009201919091525061121892505050565b610a253383836114e2565b610bd7610d0a565b610a253383836115c3565b6001600160a01b038516331480610bfe5750610bfe85336103bc565b610c1a5760405162461bcd60e51b815260040161047790612816565b6107cb85858585856116db565b610c2f610c9d565b6001600160a01b038116610c945760405162461bcd60e51b815260206004820152602660248201527f4f776e61626c653a206e6577206f776e657220697320746865207a65726f206160448201526564647265737360d01b6064820152608401610477565b610509816111c6565b6005546001600160a01b031633146108505760405162461bcd60e51b815260206004820181905260248201527f4f776e61626c653a2063616c6c6572206973206e6f7420746865206f776e65726044820152606401610477565b8051610a25906002906020840190611e0c565b600554600160a01b900460ff16156108505760405162461bcd60e51b815260206004820152601060248201526f14185d5cd8589b194e881c185d5cd95960821b6044820152606401610477565b6040517f19457468657265756d205369676e6564204d6573736167653a0a3332000000006020820152603c8101829052600090605c01604051602081830303815290604052805190602001209050919050565b6000806000610db98585611813565b9150915061097381611859565b6001600160a01b038416610dec5760405162461bcd60e51b8152600401610477906128ed565b8151835114610e0d5760405162461bcd60e51b81526004016104779061292e565b33610e1d81600087878787611a14565b60005b8451811015610eb857838181518110610e3b57610e3b612865565b6020026020010151600080878481518110610e5857610e58612865565b602002602001015181526020019081526020016000206000886001600160a01b03166001600160a01b031681526020019081526020016000206000828254610ea09190612976565b90915550819050610eb081612891565b915050610e20565b50846001600160a01b031660006001600160a01b0316826001600160a01b03167f4a39dc06d4c0dbc64b70af90fd698a233a518aa5d07e595d983b8c0526c8f7fb8787604051610f0992919061298e565b60405180910390a46107cb81600087878787611a6d565b606060028054610f2f90612718565b80601f0160208091040260200160405190810160405280929190818152602001828054610f5b90612718565b8015610fa85780601f10610f7d57610100808354040283529160200191610fa8565b820191906000526020600020905b815481529060010190602001808311610f8b57829003601f168201915b50505050509050919050565b8151835114610fd55760405162461bcd60e51b81526004016104779061292e565b6001600160a01b038416610ffb5760405162461bcd60e51b8152600401610477906129b3565b3361100a818787878787611a14565b60005b84518110156110f057600085828151811061102a5761102a612865565b60200260200101519050600085838151811061104857611048612865565b602090810291909101810151600084815280835260408082206001600160a01b038e1683529093529190912054909150818110156110985760405162461bcd60e51b8152600401610477906129f8565b6000838152602081815260408083206001600160a01b038e8116855292528083208585039055908b168252812080548492906110d5908490612976565b92505081905550505050806110e990612891565b905061100d565b50846001600160a01b0316866001600160a01b0316826001600160a01b03167f4a39dc06d4c0dbc64b70af90fd698a233a518aa5d07e595d983b8c0526c8f7fb878760405161114092919061298e565b60405180910390a4611156818787878787611a6d565b505050505050565b611166611bc9565b6005805460ff60a01b191690557f5db9ee0a495bf2e6ff9c91a7834c1ba4fdd244a5e8aa4e537bd38aeae4b073aa335b6040516001600160a01b03909116815260200160405180910390a1565b8051610a25906003906020840190611e0c565b600580546001600160a01b038381166001600160a01b0319831681179093556040519116919082907f8be0079c531659141344cd1fd0a4f28419497f9722a3daafe3b4186f6b6457e090600090a35050565b6001600160a01b03841661123e5760405162461bcd60e51b8152600401610477906128ed565b33600061124a85611c19565b9050600061125785611c19565b905061126883600089858589611a14565b6000868152602081815260408083206001600160a01b038b16845290915281208054879290611298908490612976565b909155505060408051878152602081018790526001600160a01b03808a1692600092918716917fc3d58168c5ae7397731d063d5bbf3d657854427343f4c083240f7aacaa2d0f62910160405180910390a46112f883600089898989611c64565b50505050505050565b6001600160a01b0383166113275760405162461bcd60e51b815260040161047790612a42565b80518251146113485760405162461bcd60e51b81526004016104779061292e565b600033905061136b81856000868660405180602001604052806000815250611a14565b60005b835181101561143057600084828151811061138b5761138b612865565b6020026020010151905060008483815181106113a9576113a9612865565b602090810291909101810151600084815280835260408082206001600160a01b038c1683529093529190912054909150818110156113f95760405162461bcd60e51b815260040161047790612a85565b6000928352602083815260408085206001600160a01b038b168652909152909220910390558061142881612891565b91505061136e565b5060006001600160a01b0316846001600160a01b0316826001600160a01b03167f4a39dc06d4c0dbc64b70af90fd698a233a518aa5d07e595d983b8c0526c8f7fb868660405161148192919061298e565b60405180910390a46040805160208101909152600090525b50505050565b6114a7610d0a565b6005805460ff60a01b1916600160a01b1790557f62e78cea01bee320cd4e420270b5ea74000d11b0c9f74754ebdbfc544b05a2586111963390565b816001600160a01b0316836001600160a01b031614156115565760405162461bcd60e51b815260206004820152602960248201527f455243313135353a2073657474696e6720617070726f76616c20737461747573604482015268103337b91039b2b63360b91b6064820152608401610477565b6001600160a01b03838116600081815260016020908152604080832094871680845294825291829020805460ff191686151590811790915591519182527f17307eab39ab6107e8899845ad3d59bd9653f200f220920489ca2b5937696c31910160405180910390a3505050565b6001600160a01b0383166115e95760405162461bcd60e51b815260040161047790612a42565b3360006115f584611c19565b9050600061160284611c19565b905061162283876000858560405180602001604052806000815250611a14565b6000858152602081815260408083206001600160a01b038a168452909152902054848110156116635760405162461bcd60e51b815260040161047790612a85565b6000868152602081815260408083206001600160a01b038b81168086529184528285208a8703905582518b81529384018a90529092908816917fc3d58168c5ae7397731d063d5bbf3d657854427343f4c083240f7aacaa2d0f62910160405180910390a46040805160208101909152600090526112f8565b6001600160a01b0384166117015760405162461bcd60e51b8152600401610477906129b3565b33600061170d85611c19565b9050600061171a85611c19565b905061172a838989858589611a14565b6000868152602081815260408083206001600160a01b038c1684529091529020548581101561176b5760405162461bcd60e51b8152600401610477906129f8565b6000878152602081815260408083206001600160a01b038d8116855292528083208985039055908a168252812080548892906117a8908490612976565b909155505060408051888152602081018890526001600160a01b03808b16928c821692918816917fc3d58168c5ae7397731d063d5bbf3d657854427343f4c083240f7aacaa2d0f62910160405180910390a4611808848a8a8a8a8a611c64565b505050505050505050565b60008082516041141561184a5760208301516040840151606085015160001a61183e87828585611d1f565b94509450505050611852565b506000905060025b9250929050565b600081600481111561186d5761186d612ac9565b14156118765750565b600181600481111561188a5761188a612ac9565b14156118d85760405162461bcd60e51b815260206004820152601860248201527f45434453413a20696e76616c6964207369676e617475726500000000000000006044820152606401610477565b60028160048111156118ec576118ec612ac9565b141561193a5760405162461bcd60e51b815260206004820152601f60248201527f45434453413a20696e76616c6964207369676e6174757265206c656e677468006044820152606401610477565b600381600481111561194e5761194e612ac9565b14156119a75760405162461bcd60e51b815260206004820152602260248201527f45434453413a20696e76616c6964207369676e6174757265202773272076616c604482015261756560f01b6064820152608401610477565b60048160048111156119bb576119bb612ac9565b14156105095760405162461bcd60e51b815260206004820152602260248201527f45434453413a20696e76616c6964207369676e6174757265202776272076616c604482015261756560f01b6064820152608401610477565b600654600160a01b900460ff166111565760405162461bcd60e51b815260206004820152601960248201527f455243313135353a206e6f6e207472616e7366657261626c65000000000000006044820152606401610477565b6001600160a01b0384163b156111565760405163bc197c8160e01b81526001600160a01b0385169063bc197c8190611ab19089908990889088908890600401612adf565b6020604051808303816000875af1925050508015611aec575060408051601f3d908101601f19168201909252611ae991810190612b3d565b60015b611b9957611af8612b5a565b806308c379a01415611b325750611b0d612b76565b80611b185750611b34565b8060405162461bcd60e51b8152600401610477919061222d565b505b60405162461bcd60e51b815260206004820152603460248201527f455243313135353a207472616e7366657220746f206e6f6e20455243313135356044820152732932b1b2b4bb32b91034b6b83632b6b2b73a32b960611b6064820152608401610477565b6001600160e01b0319811663bc197c8160e01b146112f85760405162461bcd60e51b815260040161047790612bff565b600554600160a01b900460ff166108505760405162461bcd60e51b815260206004820152601460248201527314185d5cd8589b194e881b9bdd081c185d5cd95960621b6044820152606401610477565b60408051600180825281830190925260609160009190602080830190803683370190505090508281600081518110611c5357611c53612865565b602090810291909101015292915050565b6001600160a01b0384163b156111565760405163f23a6e6160e01b81526001600160a01b0385169063f23a6e6190611ca89089908990889088908890600401612c47565b6020604051808303816000875af1925050508015611ce3575060408051601f3d908101601f19168201909252611ce091810190612b3d565b60015b611cef57611af8612b5a565b6001600160e01b0319811663f23a6e6160e01b146112f85760405162461bcd60e51b815260040161047790612bff565b6000807f7fffffffffffffffffffffffffffffff5d576e7357a4501ddfe92f46681b20a0831115611d565750600090506003611e03565b8460ff16601b14158015611d6e57508460ff16601c14155b15611d7f5750600090506004611e03565b6040805160008082526020820180845289905260ff881692820192909252606081018690526080810185905260019060a0016020604051602081039080840390855afa158015611dd3573d6000803e3d6000fd5b5050604051601f1901519150506001600160a01b038116611dfc57600060019250925050611e03565b9150600090505b94509492505050565b828054611e1890612718565b90600052602060002090601f016020900481019282611e3a5760008555611e80565b82601f10611e5357805160ff1916838001178555611e80565b82800160010185558215611e80579182015b82811115611e80578251825591602001919060010190611e65565b50611e8c929150611e90565b5090565b5b80821115611e8c5760008155600101611e91565b80356001600160a01b0381168114611ebc57600080fd5b919050565b60008060408385031215611ed457600080fd5b611edd83611ea5565b946020939093013593505050565b6001600160e01b03198116811461050957600080fd5b600060208284031215611f1357600080fd5b813561077a81611eeb565b634e487b7160e01b600052604160045260246000fd5b601f8201601f191681016001600160401b0381118282101715611f5957611f59611f1e565b6040525050565b60006001600160401b03831115611f7957611f79611f1e565b604051611f90601f8501601f191660200182611f34565b809150838152848484011115611fa557600080fd5b83836020830137600060208583010152509392505050565b600060208284031215611fcf57600080fd5b81356001600160401b03811115611fe557600080fd5b8201601f81018413611ff657600080fd5b61200584823560208401611f60565b949350505050565b60006001600160401b0382111561202657612026611f1e565b5060051b60200190565b600082601f83011261204157600080fd5b8135602061204e8261200d565b60405161205b8282611f34565b83815260059390931b850182019282810191508684111561207b57600080fd5b8286015b84811015612096578035835291830191830161207f565b509695505050505050565b60008083601f8401126120b357600080fd5b5081356001600160401b038111156120ca57600080fd5b60208301915083602082850101111561185257600080fd5b600082601f8301126120f357600080fd5b61077a83833560208501611f60565b60008060008060008060a0878903121561211b57600080fd5b86356001600160401b038082111561213257600080fd5b61213e8a838b01612030565b9750602089013591508082111561215457600080fd5b6121608a838b01612030565b9650604089013591508082111561217657600080fd5b6121828a838b016120a1565b90965094506060890135935060808901359150808211156121a257600080fd5b506121af89828a016120e2565b9150509295509295509295565b6000602082840312156121ce57600080fd5b5035919050565b60005b838110156121f05781810151838201526020016121d8565b838111156114995750506000910152565b600081518084526122198160208601602086016121d5565b601f01601f19169290920160200192915050565b60208152600061077a6020830184612201565b60008060008060006080868803121561225857600080fd5b61226186611ea5565b945060208601356001600160401b038082111561227d57600080fd5b61228989838a01612030565b9550604088013591508082111561229f57600080fd5b6122ab89838a01612030565b945060608801359150808211156122c157600080fd5b506122ce888289016120a1565b969995985093965092949392505050565b600080600080600060a086880312156122f757600080fd5b61230086611ea5565b945061230e60208701611ea5565b935060408601356001600160401b038082111561232a57600080fd5b61233689838a01612030565b9450606088013591508082111561234c57600080fd5b61235889838a01612030565b9350608088013591508082111561236e57600080fd5b5061237b888289016120e2565b9150509295509295909350565b6000806040838503121561239b57600080fd5b82356001600160401b03808211156123b257600080fd5b818501915085601f8301126123c657600080fd5b813560206123d38261200d565b6040516123e08282611f34565b83815260059390931b850182019282810191508984111561240057600080fd5b948201945b838610156124255761241686611ea5565b82529482019490820190612405565b9650508601359250508082111561243b57600080fd5b5061244885828601612030565b9150509250929050565b600081518084526020808501945080840160005b8381101561248257815187529582019590820190600101612466565b509495945050505050565b60208152600061077a6020830184612452565b6000602082840312156124b257600080fd5b61077a82611ea5565b6000806000806000608086880312156124d357600080fd5b6124dc86611ea5565b9450602086013593506040860135925060608601356001600160401b0381111561250557600080fd5b6122ce888289016120a1565b6000806040838503121561252457600080fd5b82356001600160401b038082111561253b57600080fd5b61254786838701612030565b9350602085013591508082111561243b57600080fd5b60008060008060008060a0878903121561257657600080fd5b863595506020870135945060408701356001600160401b038082111561217657600080fd5b600080604083850312156125ae57600080fd5b6125b783611ea5565b9150602083013580151581146125cc57600080fd5b809150509250929050565b600080604083850312156125ea57600080fd5b50508035926020909101359150565b6000806040838503121561260c57600080fd5b61261583611ea5565b915061262360208401611ea5565b90509250929050565b600080600080600060a0868803121561264457600080fd5b61264d86611ea5565b945061265b60208701611ea5565b9350604086013592506060860135915060808601356001600160401b0381111561268457600080fd5b61237b888289016120e2565b81835281816020850137506000828201602090810191909152601f909101601f19169091010190565b6001600160a01b038716815260a0602082018190526000906126dd90830188612452565b82810360408401526126ef8188612452565b90508281036060840152612704818688612690565b915050826080830152979650505050505050565b600181811c9082168061272c57607f821691505b6020821081141561274d57634e487b7160e01b600052602260045260246000fd5b50919050565b600081516127658185602086016121d5565b9290920192915050565b600080845481600182811c91508083168061278b57607f831692505b60208084108214156127ab57634e487b7160e01b86526022600452602486fd5b8180156127bf57600181146127d0576127fd565b60ff198616895284890196506127fd565b60008b81526020902060005b868110156127f55781548b8201529085019083016127dc565b505084890196505b50505050505061280d8185612753565b95945050505050565b6020808252602f908201527f455243313135353a2063616c6c6572206973206e6f7420746f6b656e206f776e60408201526e195c881b9bdc88185c1c1c9bdd9959608a1b606082015260800190565b634e487b7160e01b600052603260045260246000fd5b634e487b7160e01b600052601160045260246000fd5b60006000198214156128a5576128a561287b565b5060010190565b60018060a01b038716815285602082015284604082015260a0606082015260006128da60a083018587612690565b9050826080830152979650505050505050565b60208082526021908201527f455243313135353a206d696e7420746f20746865207a65726f206164647265736040820152607360f81b606082015260800190565b60208082526028908201527f455243313135353a2069647320616e6420616d6f756e7473206c656e677468206040820152670dad2e6dac2e8c6d60c31b606082015260800190565b600082198211156129895761298961287b565b500190565b6040815260006129a16040830185612452565b828103602084015261280d8185612452565b60208082526025908201527f455243313135353a207472616e7366657220746f20746865207a65726f206164604082015264647265737360d81b606082015260800190565b6020808252602a908201527f455243313135353a20696e73756666696369656e742062616c616e636520666f60408201526939103a3930b739b332b960b11b606082015260800190565b60208082526023908201527f455243313135353a206275726e2066726f6d20746865207a65726f206164647260408201526265737360e81b606082015260800190565b60208082526024908201527f455243313135353a206275726e20616d6f756e7420657863656564732062616c604082015263616e636560e01b606082015260800190565b634e487b7160e01b600052602160045260246000fd5b6001600160a01b0386811682528516602082015260a060408201819052600090612b0b90830186612452565b8281036060840152612b1d8186612452565b90508281036080840152612b318185612201565b98975050505050505050565b600060208284031215612b4f57600080fd5b815161077a81611eeb565b600060033d1115612b735760046000803e5060005160e01c5b90565b600060443d1015612b845790565b6040516003193d81016004833e81513d6001600160401b038160248401118184111715612bb357505050505090565b8285019150815181811115612bcb5750505050505090565b843d8701016020828501011115612be55750505050505090565b612bf460208286010187611f34565b509095945050505050565b60208082526028908201527f455243313135353a204552433131353552656365697665722072656a656374656040820152676420746f6b656e7360c01b606082015260800190565b6001600160a01b03868116825285166020820152604081018490526060810183905260a060808201819052600090612c8190830184612201565b97965050505050505056fea2646970667358221220baaeb0b874374568ae153db7cbd43d75edc56d53c27291d72f0578c2d7a2725b64736f6c634300080c0033a2646970667358221220e598fea7756b550c5777f868962e8ea2007cb35fcca9128c862c95eb22d98ffa64736f6c634300080c0033",
  "linkReferences": {},
  "deployedLinkReferences": {}
}